S01100006D61616C73747265672E7372656353
S11300000C942A000C9481000C943C000C943C0049
S11300100C943C000C943C000C943C000C944C005C
S11300200C943C000C943C000C943C000C943C005C
S11300300C943C000C943C000C943C000C943C004C
S11300400C943C000C943C000C943C000C943C003C
S11300500C943C0011241FBECFE5D8E0DEBFCDBF19
S113006021E0A0E6B0E001C01D92A233B207E1F79F
S11300700E94D4000C94DA000C9400008EB58860C1
S11300808EBD89EF90E09BBD8ABD8EB583608EBD29
S113009089B7806189BF08951F920F920FB60F929E
S11300A011248F939F93AF93BF9380916600909197
S11300B06700A0916800B09169000196A11DB11D6F
S11300C08093660090936700A0936800B0936900E2
S11300D0BF91AF919F918F910F900FBE0F901F9082
S11300E0189581B38B7F81BB82B38B7F82BB85B72D
S11300F0826085BF85B78E7F85BF8BB780648BBFD9
S113010008951F920F920FB60F9211248F939F930D
S1130110AF93BF93EF93FF93809166009091670034
S1130120A0916800B091690080936200909363008D
S1130130A0936400B093650010926600109267006B
S113014010926800109269008091600090916100A3
S1130150C297F8F4E0916000F09161008091620030
S113016090916300A0916400B0916500EE0FFF1FB1
S1130170EE0FFF1FE659FF4F80839183A283B38361
S1130180809160009091610001969093610080934A
S11301906000FF91EF91BF91AF919F918F910F906C
S11301A00FBE0F901F9018950E943E000E94710090
S10B01B07894FFCFF894FFCF0F
S9030000FC
