S01200004875727469672D42696C2E737265635B
S11300000C942A000C9447000C9447000C9447006D
S11300100C9447000C9447000C9447000C94470040
S11300200C9447000C9447000C9447000C94EF0088
S11300300C9447000C9447000C9447000C94470020
S11300400C9447000C9447000C9447000C94470010
S11300500C94470011241FBECFE5D8E0DEBFCDBF0E
S113006010E0A0E6B0E0E4E5F8E002C005900D92EF
S1130070A639B107D9F720E0A6E9B0E001C01D9286
S1130080AC3CB207E1F70E945A000C9428040C948B
S1130090000080E487B984E886B9089597B1892B74
S11300A0807F87B986B1806486B93699FECF84B1E2
S11300B095B1089587E690E00E940D010E94DF004B
S11300C00E9449000E9407017894C0E0D0E00E9499
S11300D028019923DCF1CC2319F0C13021F036C07A
S11300E08337A1F531C030ED380F3A3048F4DD0FD5
S11300F09D2F990F990FD90F8D0FD0EDD80F26C0D2
S11301008D3011F08A3011F58D2F0E94ED001F9271
S1130110DF9380E690E09F938F931F9284E38F9305
S113012088E990E09F938F930E94300188E990E0E2
S11301300E941B018DB79EB708960FB6F8949EBF18
S11301400FBE8DBFC0E002C0C1E0D0E09091970027
S1130150992309F4BCCF1092970080E090E00E94AC
S11301604E00182F092F81E090E00E944E00F82ED7
S1130170E92E82E090E00E944E001F92DF939F934D
S11301808F93EF92FF920F931F932CE730E03F93EE
S11301902F931F9284E38F9328E930E03F932F93AA
S11301A00E94300188E990E00E941B018DB79EB740
S11301B00E960FB6F8949EBF0FBE8DBF88CF81B345
S11301C0806881BB85B5886485BD85B5806285BD41
S11301D085B5846085BD13BC089583BD08951F92C1
S11301E00F920FB60F9211248F93809196008F5F18
S11301F0809396008C3028F01092960081E08093D2
S113020097008F910F900FBE0F901F90189585E067
S113021083BF89B7816089BF089521B3226021BB60
S113022090BD89B988E18AB986E880BD08955D9B4F
S1130230FECF8CB90895CF93DF93EC0103C02196D0
S11302400E94170188818111FACFDF91CF9108951F
S11302505F9B03C08CB190E008958FEF9FEF0895EA
S1130260AEE0B0E0E6E3F1E00C94FF030D891E89F3
S11302708F89988D26E02C831A83098397FF02C007
S113028080E090E801979E838D83AE01455E5F4FC9
S1130290698D7A8DCE0101960E9460014D815E8147
S11302A057FD0AC02F813885421753070CF49A0171
S11302B0F801E20FF31F10822E96E4E00C941B0465
S11302C0ABE0B0E0E6E6F1E00C94F1036C017B01F5
S11302D08A01FC0117821682838181FFCCC1CE0181
S11302E001963C01F6019381F70193FD859193FFFB
S11302F081917F01882309F4BAC1853239F493FDD1
S1130300859193FF81917F01853229F4B60190E0B4
S11303100E945703E7CF912C212C312CFFE1F315D8
S1130320D8F08B3279F038F4803279F08332A1F44A
S1130330232D20611DC08D3261F0803369F4232D9B
S1130340216016C0832D8260382EE32DE4603E2E9A
S11303502AC0F32DF8601DC037FC2DC020ED280FF6
S11303602A3040F08E32B9F436FC81C1232D20644A
S1130370322E19C036FE06C08AE0989E200D112444
S1130380922E11C0EAE02E9E200D1124222EF32D70
S1130390F0623F2E08C08C3621F4832D8068382EFD
S11303A002C0883641F4F70193FD859193FF819152
S11303B07F018111B3CF982F9F7D9554933028F4FA
S11303C00C5F1F4F9FE399830DC0833631F0833751
S11303D071F0833509F059C021C0F8018081898307
S11303E00E5F1F4F88248394912C530113C028015E
S11303F0F2E04F0E511CF801A080B18036FE03C01C
S1130400692D70E002C06FEF7FEFC5010E944C03BD
S11304104C018201F32DFF773F2E16C0280122E004
S1130420420E511CF801A080B18036FE03C0692D34
S113043070E002C06FEF7FEFC5010E9441034C01E1
S1130440F32DF0683F2E820133FC1BC0822D90E017
S113045088169906B0F4B60180E290E00E94570332
S11304602A94F4CFF50137FC859137FE81915F0121
S1130470B60190E00E94570321102A9421E0821AC9
S113048091088114910471F7E8C0843611F089361B
S113049041F5F80137FE07C0608171818281938143
S11304A00C5F1F4F08C060817181072E000C880B00
S11304B0990B0E5F1F4FF32DFF763F2E97FF09C058
S11304C090958095709561957F4F8F4F9F4FF06801
S11304D03F2E2AE030E0A3010E949303882E861861
S11304E045C0853731F4232D2F7EB22E2AE030E02B
S11304F025C0932D997FB92E8F36C1F018F4883515
S113050079F0B5C0803719F0883721F0B0C0E92FF1
S1130510E061BE2EB4FE0DC0FB2DF460BF2E09C0F9
S113052034FE0AC0292F2660B22E06C028E030E02F
S113053005C020E130E002C020E132E0F801B7FE5E
S113054007C060817181828193810C5F1F4F06C057
S11305506081718180E090E00E5F1F4FA3010E94D3
S11305609303882E8618FB2DFF773F2E36FE0DC091
S1130570232D2E7FA22E891458F434FE0BC032FC96
S113058009C0832D8E7EA82E05C0B82CA32C03C0D1
S1130590B82C01C0B92CA4FE0FC0FE01E80DF11D5A
S11305A08081803321F49A2D997EA92E09C0A2FE60
S11305B006C0B394B39404C08A2D867809F0B3942A
S11305C0A3FC11C0A0FE06C0B21488F4280C922C1F
S11305D09B180EC0B21460F4B60180E290E00E9451
S11305E05703B394F7CFB21418F42B1802C0982C05
S11305F0212CA4FE10C0B60180E390E00E945703B2
S1130600A2FE17C0A1FC03C088E790E002C088E501
S113061090E0B6010CC08A2D867859F0A1FE02C084
S11306208BE201C080E2A7FC8DE2B60190E00E945B
S11306305703891438F4B60180E390E00E9457030D
S11306409A94F7CF8A94F301E80DF11D8081B601E5
S113065090E00E9457038110F5CF222009F442CE86
S1130660B60180E290E00E9457032A94F6CFF60187
S11306708681978102C08FEF9FEF2B96E2E10C9465
S11306800D04FC010590615070400110D8F780956D
S113069090958E0F9F1F0895FC016150704001904A
S11306A00110D8F7809590958E0F9F1F08950F9392
S11306B01F93CF93DF93FB01238121FD03C08FEFB1
S11306C09FEF2CC022FF16C04681578124813581BB
S11306D04217530744F4A081B1819D012F5F3F4F1E
S11306E0318320838C93268137812F5F3F4F37835B
S11306F0268314C08B01EC01FB010084F185E02DFD
S11307000995892BE1F6D80116968D919C9117973E
S1130710019617969C938E931697CE01DF91CF91F5
S11307201F910F910895FA01AA27283051F1203121
S113073081F1E8946F936E7F6E5F7F4F8F4F9F4F71
S1130740AF4FB1E03ED0B4E03CD0670F781F891FB3
S11307509A1FA11D680F791F8A1F911DA11D6A0F81
S1130760711D811D911DA11D20D009F468943F9134
S11307702AE0269F11243019305D3193DEF6CF0133
S11307800895462F4770405D4193B3E00FD0C9F7F9
S1130790F6CF462F4F70405D4A3318F0495D31FD66
S11307A04052419302D0A9F7EACFB4E0A6959795B9
S11307B0879577956795BA95C9F70097610571058F
S11307C008959B01AC010A2E0694579547953795D9
S11307D02795BA95C9F7620F731F841F951FA01D33
S11307E008952F923F924F925F926F927F928F92D1
S11307F09F92AF92BF92CF92DF92EF92FF920F93AC
S11308001F93CF93DF93CDB7DEB7CA1BDB0B0FB6B5
S1130810F894DEBF0FBECDBF09942A883988488872
S11308205F846E847D848C849B84AA84B984C88408
S1130830DF80EE80FD800C811B81AA81B981CE0FFF
S1130840D11D0FB6F894DEBF0FBECDBFED010895E4
S1070850F894FFCF46
S11308544D6F746F72207374617274656420617473
S11308642073706565642025750D0A00583D25754F
S113087420593D2575205A3D25752056616C7565B2
S10908843D25750D0A007C
S9030000FC
