S01200004875727469672D42696C2E737265635B
S11300000C942A000C943F000C943F000C943F0085
S11300100C943F000C943F000C943F000C943F0060
S11300200C943F000C943F000C943F000C943F0050
S11300300C943F000C943F000C943F000C943F0040
S11300400C943F000C943F000C943F000C943F0030
S11300500C943F0011241FBECFE5D8E0DEBFCDBF16
S113006010E0A0E6B0E0E8EEF0E002C005900D92EA
S1130070A438B107D9F70E945C000C9472000C9468
S1130080000021B3226021BB90BD89B988E08AB900
S113009086E880BD08955D9BFECF8CB90895CF930B
S11300A0DF93EC0103C021960E944B0088818111EB
S11300B0FACFDF91CF9108958CE090E00E94410047
S11300C080E690E00E944F008DE790E00E944F0090
S11300D02FE38DE093E0215080409040E1F700C091
S10B00E00000F2CFF894FFCFF9
S11300E848656C6C6F2066726F6D20314D487A20BC
S11300F841546D656761333241210D0A00546963C7
S10701086B0D0A006D
S9030000FC
