S014000048757274696765725F62696C2E7372656330
S11300000C94A7000C941B030C94C4000C94C4001F
S11300100C94C4000C94C4000C9463050C94C400A8
S11300200C94C4000C94B1050C94C4000C947E068A
S11300300C94C4000C94C4000C94C4000C94C4002C
S11300400C94C4000C94C4000C94C4000C94C4001C
S11300500C94C40000407A10F35A00A0724E1809A0
S11300600010A5D4E80000E87648170000E40B541B
S1130070020000CA9A3B000000E1F50500008096EA
S11300809800000040420F000000A086010000001C
S1130090102700000000E8030000000064000000D6
S11300A000000A00000000000100000000002C769F
S11300B0D888DC674F0823DFC1DFAE59E1B1B796BA
S11300C0E5E3E453C63AE651997696E8E6C2842617
S11300D0EB898C9B62ED407C6FFCEFBC9C9F40F2F3
S11300E0BAA56FA5F490055A2AF75C936B6CF9676F
S11300F06DC11BFCE0E40D47FEF520E6B500D0ED34
S1130100902E0300943577050080841E080000209B
S11301104E0A000000C80C333333330F986E128339
S11301201141EF8D2114893BE65516CFFEE6DB180D
S1130130D1844B381BF77C1D901DA4BBE4242032D2
S113014084725E228100C9F124ECA1E53D271124CB
S11301501FBECFE5D8E0DEBFCDBF12E0A0E6B0E021
S1130160E8E3FCE102C005900D92A23BB107D9F788
S113017025E0A2EBB2E001C01D92A43CB207E1F776
S11301800E9459030C941A0E0C94000017B887E8C7
S113019086B9089597B1907F8F70892B87B986B1FE
S11301A0806486B93699FECF84B195B108950E94D2
S11301B0CA002091D00230E0F901EE0FFF1FEE5487
S11301C0FD4F91838083C90101966FE070E00E9426
S11301D0AD088093D00280E020E030E00BC0E82F2F
S11301E0F0E0EE0FFF1FEE54FD4F40815181240FCC
S11301F0351F8F5F8F3098F3A9E8B8E80E94C108D3
S113020096958795969587959695879508952091C7
S1130210D502211108C084539140CD9750F081E05C
S11302208093D50206C089549140439710F41092EC
S1130230D5028091D5020895CF93E091D902E2339B
S113024008F053C091E09E0F9093D902F0E0209102
S1130250320330913303EE0FFF1FEC5CFC4F31830C
S113026020834091D7025091D802241B350B811171
S113027003C042E650E002C04BE650E0C82F3F9373
S11302802F935F934F9380E790E09F938F931F92F8
S113029080E48F9384EC94E09F938F930E94F00802
S11302A084EC94E00E94AA069091D602292F30E0B3
S11302B0F901EE0FFF1FE20FF31FEE0FFF1FE856C9
S11302C0FC4FC5839F5F9093D60280913203909137
S11302D033039093D8028093D7028DB79EB70A96C2
S11302E00FB6F8949EBF0FBE8DBFCF910895CF93E4
S11302F0DF931092D40220E030E066C08091D402F3
S113030090E0FC01EE0FFF1FE80FF91FEE0FFF1F37
S1130310E856FC4F458141112AC0F901EE0FFF1F39
S1130320EC5CFC4F60817181AC01440F551FFA01F4
S1130330E80FF91FEE0FFF1FE856FC4F718360832F
S1130340D9011196AA0FBB1FAC5CBC4F6D917C9177
S11303506650710973836283FA01E80FF91FEE0F87
S1130360FF1FE856FC4F80916000848326C0F9018A
S1130370EE0FFF1FEC5CFC4F408151814650510948
S1130380FC01EE0FFF1FDF01A80FB91FAA0FBB1F4F
S1130390A856BC4F11965C934E93E9012196CC0F5D
S11303A0DD1FCC5CDC4F4881598113965C934E93DE
S11303B01297FD018091610084838091D4028F5F44
S11303C08093D4022F5F3F4F8091D90290E0019730
S11303D0281739070CF492CF2091D4022223A9F1D3
S11303E0822F90E00197FC01EE0FFF1FE80FF91F29
S11303F0EE0FFF1FE856FC4F828193814091340336
S113040050913503841B950B9093D2028093D102B3
S11304101F922F939F938F938DE890E09F938F93D8
S11304201F9280E48F9384EC94E09F938F930E94B7
S1130430F00884EC94E00E94AA068DB79EB70A9651
S11304400FB6F8949EBF0FBE8DBFDF91CF91089574
S1130450CF93DF93CFEFDFEF6091D1027091D2029F
S11304600E9499082091340330913503820F931F21
S11304709C01B82FA32F20E030E023C0F901EE0F38
S1130480FF1FE20FF31FEE0FFF1FE856FC4F4081E2
S113049051818417950798F0F901EE0FFF1FE20FC1
S11304A0F31FEE0FFF1FE856FC4F42815381841760
S11304B0950728F4622F732F8B2F9A2F0CC02F5F70
S11304C03F4F4091D40250E024173507BCF26C2F03
S11304D07D2F8B2F9A2FDF91CF910895CF92DF92AA
S11304E0EF92FF921F93CF93DF9380913203909109
S11304F033030E9428026B017C01CB0199230CF485
S113050070C0F601EE0FFF1FEC0DFD1DEE0FFF1F77
S1130510E856FC4FC281D381CE19DF098581811150
S113052019C0CA30D105B0F4109161008091600007
S1130530811B8C9F90018D9F300D1124ADECBCEC80
S11305400E94C10896958795969587959695879567
S1130550180F0AC0F601EE0FFF1FEC0DFD1DEE0F84
S1130560FF1FE856FC4F1481812F0E9442058091A1
S1130570D3021817B1F11093D302812F90E0F60142
S1130580EE0FFF1FEC0DFD1DEE0FFF1FE856FC4F95
S11305902581211103C022E630E002C02BE630E0C1
S11305A09F938F93DF93CF933F932F93DF92CF92B9
S11305B08DEB90E09F938F931F9280E48F9384EC54
S11305C094E09F938F930E94F00884EC94E00E943F
S11305D0AA068DB79EB70E960FB6F8949EBF0FBEAF
S11305E08DBFDF91CF911F91FF90EF90DF90CF905F
S11305F008958091DE029091DF028A3E914028F4B2
S1130600809161008D5F8093610080916000865FBE
S113061080936000089581B38B7F81BB82B38B7F0D
S113062082BB85B7826085BF85B78E7F85BF8BB758
S113063080648BBF08951F920F920FB60F921124FE
S11306402F933F934F935F938F939F9380913203A4
S1130650909133032091DA023091DB02AC01421B0A
S1130660530B43335105D0F02091DC023091DD026D
S11306702233310558F42091DC023091DD022F5FE2
S11306803F4F3093DD022093DC0204C01092DD0260
S11306901092DC029093DB028093DA029F918F9197
S11306A05F914F913F912F910F900FBE0F901F902C
S11306B018950E94440587E690E00E949C060E94DB
S11306C034050E94C6000E9496060E940B0378948B
S11306D0C0E0D0E0CC24C39400E010E00F2EF7E09B
S11306E0DF2EF02DF12CE12C0E94B70699230CF497
S11306F043C0EE2021F031E0E31641F03DC08337E2
S1130700D9F51092E002EE24E39436C030ED380FB0
S11307103A3060F49091E002990F292F220F220FB2
S1130720920F890F80538093E00226C08D3011F020
S11307308A3011F58091E0020E9442058091E00226
S11307401F928F9387EE90E09F938F9381E08F9316
S11307501F9284EC94E09F938F930E94F00884ECA2
S113076094E00E94AA068DB79EB708960FB6F89437
S11307709EBF0FBE8DBFE12C80912103882321F001
S113078083E090E00E94CA058F2D90E02091DC0266
S11307903091DD028217930771F18091DC02909110
S11307A0DD02F82EA0903203B090330395012C1B88
S11307B03D0B8091DC029091DD023F932F939F9338
S11307C08F9385E091E09F938F9381E08F931F92A5
S11307D084EC94E09F938F930E94F00884EC94E05F
S11307E00E94AA06EDB7FEB73A960FB6F894FEBF7C
S11307F00FBEEDBFE5018091DC029091DD028230F5
S1130800910509F4C8C030F4009761F0019709F428
S11308105BC0EFC08330910509F4CEC0079708F49C
S113082063CFE7C08091FC02882309F45DCF109266
S1130830FC0282E00E94D7000F5F1F4F083EF3E0E6
S11308401F0708F451CF02E213E0F80164857585AF
S1130850868597850E944D06B82EA92EF8016085DD
S11308607185828593850E944D06AF92BF929F93B6
S11308708F938091DF028F938091DE028F93F80132
S113088081898F9380898F938091E0021F928F9347
S113089086E291E09F938F9381E08F931F9284EC83
S11308A094E09F938F930E94F00884EC94E00E945C
S11308B0AA068DB79EB740960FB6F8949EBF0FBE9A
S11308C08DBF00E010E010CF8091FC02882309F472
S11308D00BCF1092FC0282E00E94D7005C010E94C0
S11308E00701982EC81619F00E941C01C92C80918A
S11308F0DE029091DF028A159B0520F4B092DF029C
S1130900A092DE020F5F1F4F0431110508F4ECCEF4
S113091002E213E0F80164857585868597850E9457
S11309204D06982E892EF801608571858285938500
S11309300E944D068F929F929F938F938091DF0226
S11309408F938091DE028F93F80181898F93808940
S11309508F938091E0021F928F93BF92AF928DE5A7
S113096091E09F938F9381E08F931F9284EC94E0A6
S11309709F938F930E94F00884EC94E00E94AA064F
S11309808DB79EB742960FB6F8949EBF0FBE8DBF2B
S113099000E010E0A9CE81E00E941C0185E991E00D
S11309A00E94AA068091DC029091DD020196909348
S11309B0DD028093DC0298CE0E94770184EC91E002
S11309C00E94AA0682E9EBEEF1E0A4ECB4E0019007
S11309D00D928A95E1F784EC94E00E94AA06809136
S11309E0DC029091DD0201969093DD028093DC029B
S11309F07BCE0E946E028D2D90E02091DC0230911E
S1130A00DD028217930709F46FCE0E94F9028091E8
S1130A10DC029091DD02D82E8091DC029091DD02FF
S1130A20209160001F922F93209161001F922F93B9
S1130A309F938F938DE792E09F938F9381E08F93A1
S1130A401F9284EC94E09F938F930E94F00884ECAF
S1130A5094E00E94AA06EDB7FEB73C960FB6F89450
S1130A60FEBF0FBEEDBF40CE81B3806881BB85B5AC
S1130A70886485BD85B5806285BD85B5846085BD86
S1130A8013BC089583BD089581B38F7B81BB82B36A
S1130A90806482BB88B7806288BF89B7877E89BF3C
S1130AA089B7846089BF89B7806289BF1FBC83E826
S1130AB08EBDEDEFF2E01182108214A21092330386
S1130AC01092320308951F920F920FB60F921124C1
S1130AD02F933F934F935F936F937F938F939F9342
S1130AE0AF93BF93EF93FF93EDEFF2E082A193A155
S1130AF001968770992793A382A34081518160E076
S1130B0070E0BA015527442726B537B5420F531F65
S1130B10611D711D880F991F880F991FDC01A35057
S1130B20BD4F12964D935D936D937C93159781E021
S1130B3084A3E2E2F3E0808991890196918B808B12
S1130B40FF91EF91BF91AF919F918F917F916F91A1
S1130B505F914F913F912F910F900FBE0F901F9077
S1130B6018951F920F920FB60F9211248F939F9393
S1130B70EF93FF93EDEFF2E08081918101969183F1
S1130B808083FF91EF919F918F910F900FBE0F90F3
S1130B901F9018954F925F926F927F928F929F92BF
S1130BA0AF92BF92CF92DF92EF92FF92CF93DF93F7
S1130BB0BC01892B11F461E070E0EDEFF2E014A2C6
S1130BC022A133A1F901EE0FFF1FEE0FFF1FE35027
S1130BD0FD4FC280D380E480F580F901E61BF70B5A
S1130BE0E770FF27EE0FFF1FEE0FFF1FE350FD4FCF
S1130BF082819381A481B581C81AD90AEA0AFB0AC1
S1130C00C2E2D3E0C882D982EA82FB8288849984D2
S1130C10AA84BB848C829D82AE82BF82072E000C84
S1130C20880B990B0E94A00720E034EC46E857E4B7
S1130C300E942C082B013C01C701B6010E94A007A9
S1130C406B017C019B01AC01C301B2010E942C0722
S1130C50688779878A879B87A50194010E94BF06CC
S1130C6020E030E543EC57E40E942C08A7019601EC
S1130C700E942C076C877D878E879F87DF91CF9199
S1130C80FF90EF90DF90CF90BF90AF909F908F90A8
S1130C907F906F905F904F9008950F931F932091D2
S1130CA0F9023091FA022F5F3F4F217033273093BE
S1130CB0FA022093F9028901000F111F020F131F7A
S1130CC0000F111F000F111F0F511D4F22E030E0C4
S1130CD046E050E00E94D0088091F9029091FA0217
S1130CE09C01220F331F820F931F880F991F880FB7
S1130CF0991F8F519D4F1F910F9108951F920F922D
S1130D000FB60F9211248F938091FB028F5F809313
S1130D10FB02853028F01092FB0281E08093FC02F4
S1130D208F910F900FBE0F901F90189583E083BF93
S1130D3089B7816089BF089521B3226021BB90BD2A
S1130D4089B988E18AB986E880BD08955D9BFECFA4
S1130D508CB90895CF93DF93EC0103C021960E94D0
S1130D60A60688818111FACFDF91CF9108955F9B08
S1130D7003C08CB190E008958FEF9FEF0895505811
S1130D80BB27AA270E94D7060C94F2070E94E40707
S1130D9038F00E94EB0720F039F49F3F19F426F451
S1130DA00C94E1070EF4E095E7FB0C94DB07E92FC4
S1130DB00E94030858F3BA1762077307840795075C
S1130DC020F079F4A6F50C9425080EF4E0950B2E8A
S1130DD0BA2FA02D0B01B90190010C01CA01A00189
S1130DE01124FF27591B99F0593F50F4503E68F1E4
S1130DF01A16F040A22F232F342F4427585FF3CF25
S1130E00469537952795A795F0405395C9F77EF4F5
S1130E101F16BA0B620B730B840BBAF09150A1F03E
S1130E20FF0FBB1F661F771F881FC2F70EC0BA0FC4
S1130E30621F731F841F48F4879577956795B7954C
S1130E40F7959E3F08F0B0CF9395880F08F0992747
S1130E50EE0F9795879508950E9440070C94F2072A
S1130E600E94EB0758F00E94E40740F029F45F3F2A
S1130E7029F00C94DB0751110C9426080C94E1071B
S1130E800E94030868F39923B1F3552391F3951B4A
S1130E90550BBB27AA2762177307840738F09F5F97
S1130EA05F4F220F331F441FAA1FA9F335D00E2E04
S1130EB03AF0E0E832D091505040E695001CCAF771
S1130EC02BD0FE2F29D0660F771F881FBB1F261734
S1130ED037074807AB07B0E809F0BB0B802DBF010B
S1130EE0FF2793585F4F3AF09E3F510578F00C94DA
S1130EF0DB070C9426085F3FE4F3983ED4F3869511
S1130F0077956795B795F7959F5FC9F7880F911DFA
S1130F109695879597F90895E1E0660F771F881FE6
S1130F20BB1F621773078407BA0720F0621B730B99
S1130F30840BBA0BEE1F88F7E0950895E89409C076
S1130F4097FB3EF490958095709561957F4F8F4FF8
S1130F509F4F9923A9F0F92F96E9BB279395F6950E
S1130F60879577956795B795F111F8CFFAF4BB0F8C
S1130F7011F460FF1BC06F5F7F4F8F4F9F4F16C0F0
S1130F80882311F096E911C0772321F09EE8872F7A
S1130F90762F05C0662371F096E8862F70E060E036
S1130FA02AF09A95660F771F881FDAF7880F9695AF
S1130FB0879597F9089597F99F6780E870E060E056
S1130FC008959FEF80EC089500240A9416161706DE
S1130FD018060906089500240A9412161306140626
S1130FE005060895092E0394000C11F4882352F089
S1130FF0BB0F40F4BF2B11F460FF04C06F5F7F4F41
S11310008F4F9F4F089557FD9058440F551F59F027
S11310105F3F71F04795880F97FB991F61F09F3FE1
S113102079F087950895121613061406551FF2CF0A
S11310304695F1DF08C0161617061806991FF1CF5A
S113104086957105610508940895E894BB27662781
S11310507727CB0197F908950E943F080C94F20773
S11310600E94E40738F00E94EB0720F0952311F06A
S11310700C94DB070C94E10711240C9426080E94BD
S1131080030870F3959FC1F3950F50E0551F629FBD
S1131090F001729FBB27F00DB11D639FAA27F00DCD
S11310A0B11DAA1F649F6627B00DA11D661F829FF4
S11310B02227B00DA11D621F739FB00DA11D621FD9
S11310C0839FA00D611D221F749F3327A00D611DF6
S11310D0231F849F600D211D822F762F6A2F1124D8
S11310E09F5750409AF0F1F088234AF0EE0FFF1F0B
S11310F0BB1F661F771F881F91505040A9F79E3F62
S1131100510580F00C94DB070C9426085F3FE4F350
S1131110983ED4F3869577956795B795F795E795B7
S11311209F5FC1F7FE2B880F911D9695879597F9C0
S11311300895AA1BBB1B51E107C0AA1FBB1FA6171A
S1131140B70710F0A61BB70B881F991F5A95A9F76C
S113115080959095BC01CD01089597FB072E16F458
S1131160009407D077FD09D00E94990807FC05D0A8
S11311703EF4909581959F4F0895709561957F4FAA
S11311800895A29FB001B39FC001A39F700D811D5C
S11311901124911DB29F700D811D1124911D08957C
S11311A0EF920F931F93CF93DF93E80147FD02C0A3
S11311B034E001C034E1042E000C550B57FF03C08A
S11311C0519541955109E32E022F242FAE010E941F
S11311D0010BCE01DF91CF911F910F91EF900895F4
S11311E0AEE0B0E0E6EFF8E00C94F10D0D891E8955
S11311F08F89988D26E02C831A83098397FF02C078
S113120080E090E801979E838D83AE01455E5F4F39
S1131210698D7A8DCE0101960E9420094D815E81EF
S113122057FD0AC02F813885421753070CF49A01E1
S1131230F801E20FF31F10822E96E4E00C940D0ED9
S1131240ABE0B0E0E6E2F9E00C94E30D6C017B0165
S11312508A01FC0117821682838181FFCCC1CE01F1
S113126001963C01F6019381F70193FD859193FF6B
S113127081917F01882309F4BAC1853239F493FD41
S1131280859193FF81917F01853229F4B60190E025
S11312900E94490DE7CF912C212C312CFFE1F3154D
S11312A0D8F08B3279F038F4803279F08332A1F4BB
S11312B0232D20611DC08D3261F0803369F4232D0C
S11312C0216016C0832D8260382EE32DE4603E2E0B
S11312D02AC0F32DF8601DC037FC2DC020ED280F67
S11312E02A3040F08E32B9F436FC81C1232D2064BB
S11312F0322E19C036FE06C08AE0989E200D1124B5
S1131300922E11C0EAE02E9E200D1124222EF32DE0
S1131310F0623F2E08C08C3621F4832D8068382E6D
S113132002C0883641F4F70193FD859193FF8191C2
S11313307F018111B3CF982F9F7D9554933028F46A
S11313400C5F1F4F9FE399830DC0833631F08337C1
S113135071F0833509F059C021C0F8018081898377
S11313600E5F1F4F88248394912C530113C02801CE
S1131370F2E04F0E511CF801A080B18036FE03C08C
S1131380692D70E002C06FEF7FEFC5010E943E0D32
S11313904C018201F32DFF773F2E16C0280122E075
S11313A0420E511CF801A080B18036FE03C0692DA5
S11313B070E002C06FEF7FEFC5010E94330D4C0156
S11313C0F32DF0683F2E820133FC1BC0822D90E088
S11313D088169906B0F4B60180E290E00E94490DA7
S11313E02A94F4CFF50137FC859137FE81915F0192
S11313F0B60190E00E94490D21102A9421E0821A3E
S113140091088114910471F7E8C0843611F089368B
S113141041F5F80137FE07C06081718182819381B3
S11314200C5F1F4F08C060817181072E000C880B70
S1131430990B0E5F1F4FF32DFF763F2E97FF09C0C8
S113144090958095709561957F4F8F4F9F4FF06871
S11314503F2E2AE030E0A3010E94850D882E8618D5
S113146045C0853731F4232D2F7EB22E2AE030E09B
S113147025C0932D997FB92E8F36C1F018F4883585
S113148079F0B5C0803719F0883721F0B0C0E92F62
S1131490E061BE2EB4FE0DC0FB2DF460BF2E09C06A
S11314A034FE0AC0292F2660B22E06C028E030E0A0
S11314B005C020E130E002C020E132E0F801B7FECF
S11314C007C060817181828193810C5F1F4F06C0C8
S11314D06081718180E090E00E5F1F4FA3010E9444
S11314E0850D882E8618FB2DFF773F2E36FE0DC006
S11314F0232D2E7FA22E891458F434FE0BC032FC07
S113150009C0832D8E7EA82E05C0B82CA32C03C041
S1131510B82C01C0B92CA4FE0FC0FE01E80DF11DCA
S11315208081803321F49A2D997EA92E09C0A2FED0
S113153006C0B394B39404C08A2D867809F0B3949A
S1131540A3FC11C0A0FE06C0B21488F4280C922C8F
S11315509B180EC0B21460F4B60180E290E00E94C1
S1131560490DB394F7CFB21418F42B1802C0982C79
S1131570212CA4FE10C0B60180E390E00E94490D26
S1131580A2FE17C0A1FC03C088E790E002C088E572
S113159090E0B6010CC08A2D867859F0A1FE02C0F5
S11315A08BE201C080E2A7FC8DE2B60190E00E94CC
S11315B0490D891438F4B60180E390E00E94490D86
S11315C09A94F7CF8A94F301E80DF11D8081B60156
S11315D090E00E94490D8110F5CF222009F442CEFB
S11315E0B60180E290E00E94490D2A94F6CFF601FC
S11315F08681978102C08FEF9FEF2B96E2E10C94D6
S1131600FF0DA9E0B0E0E7E0FBE00C94E90D6A010E
S1131610122FB02E2BE3201720F0FF24F394F00EAA
S113162002C02CE3F22E0F2D27E0AE014F5F5F4F77
S11316300E945B0CBC014981842F8970813031F098
S1131640E1FC06C0E0FE06C090E205C09DE203C0D6
S11316509BE201C090E05E2D507143FF3CC09111AC
S113166002C083E001C084E0811718F4212F281BF5
S113167001C020E051110BC0F601822F30E2882313
S113168019F031938150FBCFC20ED11C20E0992375
S113169029F0D6019C93F60131966F01C601039699
S11316A0E2FE0AC03EE4D6013C9341E411964C9319
S11316B0119712963C9306C03EE6F601308341E64C
S11316C041833283FC01322F40E2332309F442C0C8
S11316D041933150FACF42FF44C0911102C083E0DC
S11316E001C084E0811718F4212F281B01C020E0D9
S11316F051110BC0F601822F30E2882319F0319387
S11317008150FBCFC20ED11C20E0992329F0D601D1
S11317109C93F60131966F01C6010396E2FE0BC05D
S113172039E4D6013C933EE411963C93119736E498
S113173012963C9307C039E6F60130833EE63183C6
S113174036E63283FC01322F40E2332319F0419311
S11317503150FBCFFC01E20FF11D10828EEF9FEFA1
S1131760A6C021E030E0911102C020E030E016165E
S113177017061CF4FB01319602C0E1E0F0E02E0FE5
S11317803F1FBB2021F0EB2DF0E0319602C0E0E0DA
S1131790F0E02E0F3F1FE12FF0E02E173F071CF45F
S11317A0121B212F01C020E08E2D887159F4F601FF
S11317B0822F30E2882319F031938150FBCFC20E7F
S11317C0D11C20E0992329F0D6019C93F60131968F
S11317D06F0151110BC0F601822F90E3882319F099
S11317E091938150FBCFC20ED11C20E00F2D060F28
S11317F09A81342F307144FF03C0913309F40150AE
S1131800101624F4093018F008E001C001E0AB011F
S113181077FF02C040E050E0FB01E41BF50BA1E0C0
S1131820B0E0AC0FBD1FEA0FFB1F8EE2A82E4B01E8
S1131830801A91080B2D10E01195019511094F3F65
S1131840BFEF5B0721F4D601AC9211966D016417CA
S113185075072CF08416950614F4818101C080E389
S1131860415051093196D60111967D014017510717
S113187024F0D6018C936701E2CF6417750739F41D
S1131880963320F4953319F4311101C081E3F60144
S11318908083F701822F90E2882319F0919381507D
S11318A0FBCFF701E20FF11D108280E090E0299652
S11318B0ECE00C94050E283008F027E03327DA0119
S11318C0990F311D87FD916000966105710539F40A
S11318D032602E5F3D9330E32A95E1F708959F3FF0
S11318E030F080387105610509F03C5F3C5F3D9341
S11318F0913008F08068911DDF93CF931F930F936D
S1131900FF92EF92192F987F9695E92F96959695C9
S1131910E90FFF27E255FF4F99273327EE24FF24D1
S1131920A701E70105900894079428F4360FE71EF1
S1131930F81E491F511D660F771F881F991F0694B3
S1131940A1F70590079428F4E70EF81E491F561FC7
S1131950C11D770F881F991F661F0694A1F7059074
S1131960079428F4F80E491F561FC71FD11D880F6E
S1131970991F661F771F0694A1F70590079420F41A
S1131980490F561FC71FD81F990F661F771F881F3F
S11319900694A9F784911095177041F0D695C795D0
S11319A057954795F794E7941A95C1F7E4E5F0E065
S11319B068941590159135916591959105907FE204
S11319C07395E118F10A430B560BC90BD009C0F704
S11319D0E10CF11E431F561FC91FD01D7EF4703346
S11319E011F48A95E6CFE894015030F0080F0AF418
S11319F00027021708F4202F2395022F7A3328F0AA
S1131A0079E37D932A95E9F710C07D932A9589F6A9
S1131A10069497956795379517951794E118F10AE9
S1131A20430B560BC90BD00998F023957E917395FF
S1131A307A3308F070E37C932013B8F77E917061D9
S1131A407D9330F0839571E37D9370E32A95E1F7FC
S1131A501124EF90FF900F911F91CF91DF9199275F
S1131A6087FD90950895FC01059061507040011028
S1131A70D8F7809590958E0F9F1F0895FC016150B3
S1131A80704001900110D8F7809590958E0F9F1F9C
S1131A9008950F931F93CF93DF93FB01238121FDBF
S1131AA003C08FEF9FEF2CC022FF16C046815781E1
S1131AB0248135814217530744F4A081B1819D01EB
S1131AC02F5F3F4F318320838C93268137812F5F93
S1131AD03F4F3783268314C08B01EC01FB01008444
S1131AE0F185E02D0995892BE1F6D80116968D91A3
S1131AF09C911797019617969C938E931697CE01F7
S1131B00DF91CF911F910F910895FA01AA272830F0
S1131B1051F1203181F1E8946F936E7F6E5F7F4FB6
S1131B208F4F9F4FAF4FB1E03ED0B4E03CD0670F32
S1131B30781F891F9A1FA11D680F791F8A1F911D85
S1131B40A11D6A0F711D811D911DA11D20D009F4D5
S1131B5068943F912AE0269F11243019305D319317
S1131B60DEF6CF010895462F4770405D4193B3E000
S1131B700FD0C9F7F6CF462F4F70405D4A3318F0A7
S1131B80495D31FD4052419302D0A9F7EACFB4E058
S1131B90A6959795879577956795BA95C9F7009710
S1131BA06105710508959B01AC010A2E06945795B1
S1131BB0479537952795BA95C9F7620F731F841F08
S1131BC0951FA01D08952F923F924F925F926F929E
S1131BD07F928F929F92AF92BF92CF92DF92EF92B9
S1131BE0FF920F931F93CF93DF93CDB7DEB7CA1B3A
S1131BF0DB0B0FB6F894DEBF0FBECDBF09942A8865
S1131C00398848885F846E847D848C849B84AA840C
S1131C10B984C884DF80EE80FD800C811B81AA8199
S1131C20B981CE0FD11D0FB6F894DEBF0FBECDBF64
S10B1C30ED010895F894FFCFC3
S1131C38783C5354524149474854005455524E0035
S1131C485B5345475D20257320206C656E67746877
S1131C583D25752070756C7365730D0A005B5345DB
S1131C68475D20547261636B206C656E67746820ED
S1131C783D2025752070756C736573202053656746
S1131C886D656E7473203D2025750D0A005B5255F1
S1131C984E5D205365673D2564202025732020640C
S1131CA86973744C6566743D257520207370656589
S1131CB8643D25750D0A005B434D445D204D6F74EA
S1131CC86F722073706565642073657420746F2067
S1131CD825750D0A005B4C41505D204C61703D2513
S1131CE87520204C656E6774683D25752070756C89
S1131CF87365730D0A005B49444C455D2053706558
S1131D0865643D25337520204F444F3D25346420B8
S1131D1820546F70583D2534752020486173743DF4
S1131D28257320204163633D25730D0A005B4D41F3
S1131D38505D20416363583D257520537065656483
S1131D483D2575204F444F3D25336420546F70580A
S1131D583D257520486173743D2573204163633DB7
S1131D6825730D0A005B4D41505D204D617070690B
S1131D786E6720636F6D706C6574652E204275699B
S1131D886C64696E67207365676D656E74732E2E57
S1131D982E0D0A005B5345475D205365676D656EDC
S1131DA87473206275696C742E205265616479209D
S1131DB8746F20726163652E0D0A000D20202020A7
S1131DC82020202020202020202020202020202007
S1131DD820202020202020202020202020202020F7
S1131DE820202020202020202020202020202020E7
S1131DF820202020202020202020202020202020D7
S1131E0820202020202020202020202020202020C6
S1131E1820202020202020202020202020202020B6
S1131E2820202020202020202020202020202020A6
S1131E3820202020202020202020205365676D6545
S1131E486E7465722062796767657421005B4C451E
S1131E5841524E5D204C617020257520646F6E657B
S1131E682E205370656564207475726E733D2575F4
S1131E7820207374726169676874733D25750D0A4F
S1051E88000054
S9030000FC
