S014000048757274696765725F62696C2E7372656330
S11300000C94A7000C945C020C94C4000C94C400DF
S11300100C94C4000C94C4000C9482040C94C4008A
S11300200C94C4000C94D0040C94C4000C94AD053E
S11300300C94C4000C94C4000C94C4000C94C4002C
S11300400C94C4000C94C4000C94C4000C94C4001C
S11300500C94C40000407A10F35A00A0724E1809A0
S11300600010A5D4E80000E87648170000E40B541B
S1130070020000CA9A3B000000E1F50500008096EA
S11300809800000040420F000000A086010000001C
S1130090102700000000E8030000000064000000D6
S11300A000000A00000000000100000000002C769F
S11300B0D888DC674F0823DFC1DFAE59E1B1B796BA
S11300C0E5E3E453C63AE651997696E8E6C2842617
S11300D0EB898C9B62ED407C6FFCEFBC9C9F40F2F3
S11300E0BAA56FA5F490055A2AF75C936B6CF9676F
S11300F06DC11BFCE0E40D47FEF520E6B500D0ED34
S1130100902E0300943577050080841E080000209B
S11301104E0A000000C80C333333330F986E128339
S11301201141EF8D2114893BE65516CFFEE6DB180D
S1130130D1844B381BF77C1D901DA4BBE4242032D2
S113014084725E228100C9F124ECA1E53D271124CB
S11301501FBECFE5D8E0DEBFCDBF11E0A0E6B0E022
S1130160EEE6FAE102C005900D92AE3DB107D9F773
S113017024E0AEEDB1E001C01D92A83DB207E1F765
S11301800E94AB020C94350D0C94000017B887E85C
S113019086B9089597B1907F8F70892B87B986B1FE
S11301A0806486B93699FECF84B195B108952091C3
S11301B0DE01211108C084539140CD9750F081E0B5
S11301C08093DE0106C089549140439710F4109245
S11301D0DE018091DE010895E091E801E23308F048
S11301E07DC091E09E0F9093E801F0E020914602DB
S11301F030914702EE0FFF1FE85BFD4F31832083F0
S11302004091E6015091E701241B350B3093E50141
S11302102093E40181112DC03F932F9380E690E059
S11302209F938F931F9280E48F9388ED93E09F9325
S11302308F930E940B0888ED93E00E94D9052091CA
S1130240E301822F90E0FC01EE0FFF1FE80FF91F7E
S1130250EE0FFF1FE455FD4F15822F5F2093E3013E
S11302608DB79EB708960FB6F8949EBF0FBE8DBF8C
S11302702DC03F932F9385E690E09F938F931F9219
S113028080E48F9388ED93E09F938F930E940B08F3
S113029088ED93E00E94D9052091E301822F90E03C
S11302A0FC01EE0FFF1FE80FF91FEE0FFF1FE455CF
S11302B0FD4F81E085832F5F2093E3018DB79EB7C7
S11302C008960FB6F8949EBF0FBE8DBF809146026C
S11302D0909147029093E7018093E601089510926C
S11302E0E20120E030E03EC04091E201842F90E042
S11302F0F901EE0FFF1FE85BFD4F60817181FC0186
S1130300EE0FFF1FE80FF91FEE0FFF1FE455FD4F1F
S1130310718360832F5F3F4FD901AA0FBB1FA85B76
S1130320BD4F6D917C9173836283558151110CC0D3
S1130330FC01EE0FFF1FE80FF91FEE0FFF1FE4553E
S1130340FD4F84E684830BC0FC01EE0FFF1FE80F12
S1130350F91FEE0FFF1FE455FD4F8CE384834F5FBD
S11303604093E2018091E80190E001972817390752
S11303700CF4BACF8091E201882389F090E00197D0
S1130380FC01EE0FFF1FE80FF91FEE0FFF1FE455EE
S1130390FD4F828193819093E0018093DF01089562
S11303A06091DF017091E0010E94C80720E030E015
S11303B01EC0F901EE0FFF1FE20FF31FEE0FFF1F28
S11303C0E455FD4F408151818417950770F0F90180
S11303D0EE0FFF1FE20FF31FEE0FFF1FE455FD4F5B
S11303E0428153818417950758F02F5F3F4F409106
S11303F0E20150E024173507E4F28FEF9FEF0895F0
S1130400822F932F0895CF93DF938091460290918A
S113041047020E94D001EC019923DCF1FC01EE0FAC
S1130420FF1FE80FF91FEE0FFF1FE455FD4F8481F6
S11304300E9467048091E10190E0C817D90749F14F
S1130440C093E101FE01EE0FFF1FEC0FFD1FEE0F45
S1130450FF1FE455FD4F84811F928F93DF93CF9349
S11304608AE690E09F938F931F9280E48F9388EDA8
S113047093E09F938F930E940B0888ED93E00E9472
S1130480D9058DB79EB70A960FB6F8949EBF0FBED6
S11304908DBFDF91CF91089581B38B7F81BB82B3F0
S11304A08B7F82BB85B7826085BF85B78E7F85BF12
S11304B08BB780648BBF08951F920F920FB60F9273
S11304C011242F933F934F935F938F939F93809126
S11304D04602909147022091E9013091EA01AC0172
S11304E0421B530B4333510508F12091EB0130912A
S11304F0EC012233310558F42091EB013091EC01E9
S11305002F5F3F4F3093EC012093EB010BC0209100
S1130510EB013091EC012233310520F01092EC0113
S11305201092EB019093EA018093E9019F918F91DE
S11305305F914F913F912F910F900FBE0F901F909D
S1130540189581B38F7B81BB82B3806482BB14BA5C
S11305508FEF85BB0895CF93DF93CDB7DEB76E974A
S11305600FB6F894DEBF0FBECDBF0E94A1020E9459
S1130570690487E690E00E94CB050E9459040E941A
S1130580C6000E94C5050E944C027894E12C772491
S11305907394C12CD12C912C10E000E0F12C0E941A
S11305A0E6059923DCF1002319F0013021F036C06F
S11305B08337A1F531C030ED380F3A3060F4FF0CC9
S11305C09F2D990F990FF90E8F0D0F2EF0EDFF2E21
S11305D0F02DF80E23C08D3011F08A30F9F48F2DF0
S11305E00E9467041F92FF9281E890E09F938F938B
S11305F081E08F931F9288ED93E09F938F930E94E5
S11306000B0888ED93E00E94D9050FB6F894DEBF7D
S11306100FBECDBF00E002C001E0F12C80912D029D
S1130620882321F083E090E00E94E904812F90E088
S11306302091EB013091EC018217930709F180912D
S1130640EB019091EC01182F8091EB019091EC015A
S11306509F938F938DE990E09F938F9381E08F9385
S11306601F9288ED93E09F938F930E940B0888ED6F
S113067093E00E94D9050FB6F894DEBF0FBECDBF3C
S11306808091EB019091EC018130910509F450C007
S113069040F08230910509F4E4C0039709F4EDC0F9
S11306A005C180910802882309F479CF10920802C9
S11306B0939453E1591508F072CF0F2EFEE2AF2E3A
S11306C0F2E0BF2EF02DF50164857585868597854A
S11306D00E947C05982E892EF5016085718582859E
S11306E093850E947C058F929F929F938F93DF92B4
S11306F0CF92F501818D8F93808D8F931F92FF92FE
S113070082E091E09F938F9381E08F931F9288ED15
S113071093E09F938F930E940B0888ED93E00E94CF
S1130720D9050FB6F894DEBF0FBECDBF912C37CFDD
S113073080910802882309F432CF1092080282E0E3
S113074090E00E94CA004E2D50E0FA01EE0FFF1F08
S113075021E030E02C0F3D1FE20FF31F91838083D3
S11307604F5F5F4F9A01A9E8B8E80E94DC079695AD
S113077087959695879596958795E42E3FE0839F78
S1130780E018112480E020E030E00FC0E82FF0E012
S1130790EE0FFF1F41E050E04C0F5D1FE40FF51F0B
S11307A040815181240F351F8F5F8F3078F3A9E882
S11307B0B8E80E94DC075C01B694A794B694A794A9
S11307C0B694A794C5010E94D700882E781619F014
S11307D00E94EC00782CCA14DB0408F4650193949D
S11307E053E1591508F0DBCE0F2EFEE28F2EF2E016
S11307F09F2EF02DF40164857585868597850E946A
S11308007C05682E592EF401608571858285938557
S11308100E947C055F926F929F938F93DF92CF9299
S1130820F401818D8F93808D8F931F92FF92BF92DD
S1130830AF9280E391E09F938F9381E08F931F9217
S113084088ED93E09F938F930E940B0888ED93E0CB
S11308500E94D9050FB6F894DEBF0FBECDBF912C10
S11308609ECE80E00E94EC008091EB019091EC011F
S113087001969093EC018093EB010E946F018AE74B
S1130880E3E6F1E0A8EDB3E001900D928A95E1F77B
S113089088ED93E00E94D9058091EB019091EC01E1
S11308A001969093EC018093EB0179CE0E940302B0
S11308B076CE81B3806881BB85B5886485BD85B5F6
S11308C0806285BD85B5846085BD13BC089583BDF4
S11308D0089588B7806288BF89B7877E89BF89B742
S11308E0846089BF89B7806289BF1FBC83E88EBDDD
S11308F0E9E0F2E01182108214A2109247021092F1
S1130900460208951F920F920FB60F9211242F934F
S11309103F934F935F936F937F938F939F93AF9383
S1130920BF93EF93FF93E9E0F2E082A193A10196D4
S11309308770992793A382A34081518160E070E07E
S1130940BA015527442726B537B5420F531F611DF9
S1130950711D880F991F880F991FDC01A75FBD4F78
S113096012964D935D936D937C93159781E084A3C8
S1130970EEE2F2E0808D918D0196918F808FFF9150
S1130980EF91BF91AF919F918F917F916F915F9103
S11309904F913F912F910F900FBE0F901F9018957C
S11309A01F920F920FB60F9211248F939F93EF9380
S11309B0FF93E9E0F2E08081918101969183808345
S11309C0FF91EF919F918F910F900FBE0F901F9009
S11309D018954F925F926F927F928F929F92AF92EF
S11309E0BF92CF92DF92EF92FF92CF93DF93BC013D
S11309F0892B11F461E070E0E9E0F2E014A222A195
S1130A0033A1F901EE0FFF1FEE0FFF1FE75FFD4F4C
S1130A10C280D380E480F580F901E61BF70BE77010
S1130A20FF27EE0FFF1FEE0FFF1FE75FFD4F8281D1
S1130A309381A481B581C81AD90AEA0AFB0ACEE2D5
S1130A40D2E0C882D982EA82FB8288849984AA840B
S1130A50BB848C829D82AE82BF82072E000C880BE1
S1130A60990B0E94CF0620E034EC46E857E40E943C
S1130A705B072B013C01C701B6010E94CF066B0145
S1130A807C019B01AC01C301B2010E945B062B01F6
S1130A903C01688779878A879B87A50194010E9416
S1130AA0EE0520E030E543EC57E40E945B07A70124
S1130AB096010E945B066C877D878E879F87488A94
S1130AC0598A6A8A7B8A20E030E040E251E40E943D
S1130AD05B076C8B7D8B8E8B9F8BDF91CF91FF900F
S1130AE0EF90DF90CF90BF90AF909F908F907F90CA
S1130AF06F905F904F9008950F931F93209105027C
S1130B00309106022F5F3F4F217033273093060246
S1130B10209305028901000F111F020F131F000FFC
S1130B20111F000F111F03511E4F22E030E046E059
S1130B3050E00E94EB0780910502909106029C010F
S1130B40220F331F820F931F880F991F880F991F3D
S1130B5083519E4F1F910F9108951F920F920FB6CC
S1130B600F9211248F93809107028F5F8093070265
S1130B70853028F01092070281E0809308028F915B
S1130B800F900FBE0F901F90189583E083BF89B715
S1130B90816089BF089521B3226021BB90BD89B9CA
S1130BA088E18AB986E880BD08955D9BFECF8CB943
S1130BB00895CF93DF93EC0103C021960E94D505DD
S1130BC088818111FACFDF91CF9108955F9B03C093
S1130BD08CB190E008958FEF9FEF08955058BB2794
S1130BE0AA270E9406060C9421070E94130738F0D6
S1130BF00E941A0720F039F49F3F19F426F40C944C
S1130C0010070EF4E095E7FB0C940A07E92F0E9405
S1130C10320758F3BA17620773078407950720F061
S1130C2079F4A6F50C9454070EF4E0950B2EBA2F24
S1130C30A02D0B01B90190010C01CA01A0011124DE
S1130C40FF27591B99F0593F50F4503E68F11A168A
S1130C50F040A22F232F342F4427585FF3CF46951B
S1130C6037952795A795F0405395C9F77EF41F163D
S1130C70BA0B620B730B840BBAF09150A1F0FF0F07
S1130C80BB1F661F771F881FC2F70EC0BA0F621FF3
S1130C90731F841F48F4879577956795B795F795E3
S1130CA09E3F08F0B0CF9395880F08F09927EE0F78
S1130CB09795879508950E946F060C9421070E94CA
S1130CC01A0758F00E94130740F029F45F3F29F0F7
S1130CD00C940A0751110C9455070C9410070E94A8
S1130CE0320768F39923B1F3552391F3951B550B00
S1130CF0BB27AA2762177307840738F09F5F5F4FEB
S1130D00220F331F441FAA1FA9F335D00E2E3AF029
S1130D10E0E832D091505040E695001CCAF72BD041
S1130D20FE2F29D0660F771F881FBB1F2617370792
S1130D304807AB07B0E809F0BB0B802DBF01FF27C4
S1130D4093585F4F3AF09E3F510578F00C940A0790
S1130D500C9455075F3FE4F3983ED4F3869577955A
S1130D606795B795F7959F5FC9F7880F911D96957D
S1130D70879597F90895E1E0660F771F881FBB1FD9
S1130D80621773078407BA0720F0621B730B840B86
S1130D90BA0BEE1F88F7E0950895E89409C097FB15
S1130DA03EF490958095709561957F4F8F4F9F4F3E
S1130DB09923A9F0F92F96E9BB279395F695879582
S1130DC077956795B795F111F8CFFAF4BB0F11F445
S1130DD060FF1BC06F5F7F4F8F4F9F4F16C08823EC
S1130DE011F096E911C0772321F09EE8872F762F22
S1130DF005C0662371F096E8862F70E060E02AF063
S1130E009A95660F771F881FDAF7880F969587954E
S1130E1097F9089597F99F6780E870E060E0089576
S1130E209FEF80EC089500240A94161617061806FE
S1130E300906089500240A941216130614060506DA
S1130E400895092E0394000C11F4882352F0BB0F6B
S1130E5040F4BF2B11F460FF04C06F5F7F4F8F4FCE
S1130E609F4F089557FD9058440F551F59F05F3F09
S1130E7071F04795880F97FB991F61F09F3F79F0B8
S1130E8087950895121613061406551FF2CF46953A
S1130E90F1DF08C0161617061806991FF1CF8695BC
S1130EA07105610508940895E894BB2766277727A0
S1130EB0CB0197F908950E946E070C9421070E94B4
S1130EC0130738F00E941A0720F0952311F00C94B0
S1130ED00A070C94100711240C9455070E9432073A
S1130EE070F3959FC1F3950F50E0551F629FF00179
S1130EF0729FBB27F00DB11D639FAA27F00DB11D92
S1130F00AA1F649F6627B00DA11D661F829F22271A
S1130F10B00DA11D621F739FB00DA11D621F839FA1
S1130F20A00D611D221F749F3327A00D611D231F77
S1130F30849F600D211D822F762F6A2F11249F57C5
S1130F4050409AF0F1F088234AF0EE0FFF1FBB1FC8
S1130F50661F771F881F91505040A9F79E3F510587
S1130F6080F00C940A070C9455075F3FE4F3983E15
S1130F70D4F3869577956795B795F795E7959F5F31
S1130F80C1F7FE2B880F911D9695879597F90895C3
S1130F90AA1BBB1B51E107C0AA1FBB1FA617B7079B
S1130FA010F0A61BB70B881F991F5A95A9F78095B7
S1130FB09095BC01CD010895A29FB001B39FC001DB
S1130FC0A39F700D811D1124911DB29F700D811D71
S1130FD01124911D0895EF920F931F93CF93DF93E4
S1130FE0E80147FD02C034E001C034E1042E000CE6
S1130FF0550B57FF03C0519541955109E32E022F1C
S1131000242FAE010E941C0ACE01DF91CF911F91C3
S11310100F91EF900895AEE0B0E0E1E1F8E00C94B8
S11310200C0D0D891E898F89988D26E02C831A83D7
S1131030098397FF02C080E090E801979E838D8327
S1131040AE01455E5F4F698D7A8DCE0101960E9497
S11310503B084D815E8157FD0AC02F8138854217B8
S113106053070CF49A01F801E20FF31F10822E9635
S1131070E4E00C94280DABE0B0E0E1E4F8E00C947B
S1131080FE0C6C017B018A01FC01178216828381AC
S113109081FFCCC1CE0101963C01F6019381F70199
S11310A093FD859193FF81917F01882309F4BAC14F
S11310B0853239F493FD859193FF81917F018532C7
S11310C029F4B60190E00E94640CE7CF912C212C06
S11310D0312CFFE1F315D8F08B3279F038F48032FB
S11310E079F08332A1F4232D20611DC08D3261F08B
S11310F0803369F4232D216016C0832D8260382E3D
S1131100E32DE4603E2E2AC0F32DF8601DC037FCA9
S11311102DC020ED280F2A3040F08E32B9F436FC71
S113112081C1232D2064322E19C036FE06C08AE008
S1131130989E200D1124922E11C0EAE02E9E200DBF
S11311401124222EF32DF0623F2E08C08C3621F498
S1131150832D8068382E02C0883641F4F70193FD50
S1131160859193FF81917F018111B3CF982F9F7D4A
S11311709554933028F40C5F1F4F9FE399830DC05F
S1131180833631F0833771F0833509F059C021C0BB
S1131190F801808189830E5F1F4F88248394912CEA
S11311A0530113C02801F2E04F0E511CF801A08036
S11311B0B18036FE03C0692D70E002C06FEF7FEF8F
S11311C0C5010E94590C4C018201F32DFF773F2E7B
S11311D016C0280122E0420E511CF801A080B18003
S11311E036FE03C0692D70E002C06FEF7FEFC501CA
S11311F00E944E0C4C01F32DF0683F2E820133FC0B
S11312001BC0822D90E088169906B0F4B60180E2E6
S113121090E00E94640C2A94F4CFF50137FC859188
S113122037FE81915F01B60190E00E94640C2110A9
S11312302A9421E0821A91088114910471F7E8C07C
S1131240843611F0893641F5F80137FE07C0608114
S11312507181828193810C5F1F4F08C0608171810D
S1131260072E000C880B990B0E5F1F4FF32DFF7692
S11312703F2E97FF09C090958095709561957F4F9B
S11312808F4F9F4FF0683F2E2AE030E0A3010E9469
S1131290A00C882E861845C0853731F4232D2F7E67
S11312A0B22E2AE030E025C0932D997FB92E8F36D7
S11312B0C1F018F4883579F0B5C0803719F0883753
S11312C021F0B0C0E92FE061BE2EB4FE0DC0FB2DAD
S11312D0F460BF2E09C034FE0AC0292F2660B22E46
S11312E006C028E030E005C020E130E002C020E183
S11312F032E0F801B7FE07C0608171818281938179
S11313000C5F1F4F06C06081718180E090E00E5F2A
S11313101F4FA3010E94A00C882E8618FB2DFF7777
S11313203F2E36FE0DC0232D2E7FA22E891458F495
S113133034FE0BC032FC09C0832D8E7EA82E05C05E
S1131340B82CA32C03C0B82C01C0B92CA4FE0FC028
S1131350FE01E80DF11D8081803321F49A2D997EE0
S1131360A92E09C0A2FE06C0B394B39404C08A2D6A
S1131370867809F0B394A3FC11C0A0FE06C0B21491
S113138088F4280C922C9B180EC0B21460F4B60199
S113139080E290E00E94640CB394F7CFB21418F486
S11313A02B1802C0982C212CA4FE10C0B60180E397
S11313B090E00E94640CA2FE17C0A1FC03C088E761
S11313C090E002C088E590E0B6010CC08A2D8678D2
S11313D059F0A1FE02C08BE201C080E2A7FC8DE2BD
S11313E0B60190E00E94640C891438F4B60180E3DD
S11313F090E00E94640C9A94F7CF8A94F301E80D6C
S1131400F11D8081B60190E00E94640C8110F5CF3B
S1131410222009F442CEB60180E290E00E94640CDE
S11314202A94F6CFF6018681978102C08FEF9FEF51
S11314302B96E2E10C941A0DA9E0B0E0E2E2FAE0A6
S11314400C94040D6A01122FB02E2BE3201720F008
S1131450FF24F394F00E02C02CE3F22E0F2D27E0AC
S1131460AE014F5F5F4F0E94760BBC014981842F10
S11314708970813031F0E1FC06C0E0FE06C090E2E4
S113148005C09DE203C09BE201C090E05E2D507157
S113149043FF3CC0911102C083E001C084E0811786
S11314A018F4212F281B01C020E051110BC0F601B4
S11314B0822F30E2882319F031938150FBCFC20E82
S11314C0D11C20E0992329F0D6019C93F601319692
S11314D06F01C6010396E2FE0AC03EE4D6013C93C6
S11314E041E411964C93119712963C9306C03EE644
S11314F0F601308341E641833283FC01322F40E21E
S1131500332309F442C041933150FACF42FF44C01F
S1131510911102C083E001C084E0811718F4212FE7
S1131520281B01C020E051110BC0F601822F30E2CC
S1131530882319F031938150FBCFC20ED11C20E0D7
S1131540992329F0D6019C93F60131966F01C601C7
S11315500396E2FE0BC039E4D6013C933EE41196B7
S11315603C93119736E412963C9307C039E6F60192
S113157030833EE6318336E63283FC01322F40E28B
S1131580332319F041933150FBCFFC01E20FF11DDD
S113159010828EEF9FEFA6C021E030E0911102C0CF
S11315A020E030E0161617061CF4FB01319602C049
S11315B0E1E0F0E02E0F3F1FBB2021F0EB2DF0E027
S11315C0319602C0E0E0F0E02E0F3F1FE12FF0E083
S11315D02E173F071CF4121B212F01C020E08E2D73
S11315E0887159F4F601822F30E2882319F031937F
S11315F08150FBCFC20ED11C20E0992329F0D601E3
S11316009C93F60131966F0151110BC0F601822FA4
S113161090E3882319F091938150FBCFC20ED11C23
S113162020E00F2D060F9A81342F307144FF03C040
S1131630913309F40150101624F4093018F008E02D
S113164001C001E0AB0177FF02C040E050E0FB01C4
S1131650E41BF50BA1E0B0E0AC0FBD1FEA0FFB1FCC
S11316608EE2A82E4B01801A91080B2D10E01195E3
S1131670019511094F3FBFEF5B0721F4D601AC92EE
S113168011966D01641775072CF08416950614F4F1
S1131690818101C080E3415051093196D6011196F0
S11316A07D014017510724F0D6018C936701E2CFE6
S11316B06417750739F4963320F4953319F431110E
S11316C001C081E3F6018083F701822F90E2882331
S11316D019F091938150FBCFF701E20FF11D1082B5
S11316E080E090E02996ECE00C94200D283008F07E
S11316F027E03327DA01990F311D87FD91600096A9
S11317006105710539F432602E5F3D9330E32A950B
S1131710E1F708959F3F30F080387105610509F0C5
S11317203C5F3C5F3D93913008F08068911DDF93EE
S1131730CF931F930F93FF92EF92192F987F969553
S1131740E92F96959695E90FFF27E255FF4F9927C4
S11317503327EE24FF24A701E7010590089407949A
S113176028F4360FE71EF81E491F511D660F771F18
S1131770881F991F0694A1F70590079428F4E70E93
S1131780F81E491F561FC11D770F881F991F661F1A
S11317900694A1F70590079428F4F80E491F561FE4
S11317A0C71FD11D880F991F661F771F0694A1F7C5
S11317B00590079420F4490F561FC71FD81F990F8F
S11317C0661F771F881F0694A9F7849110951770D8
S11317D041F0D695C79557954795F794E7941A9590
S11317E0C1F7E4E5F0E068941590159135916591A1
S11317F0959105907FE27395E118F10A430B560B1E
S1131800C90BD009C0F7E10CF11E431F561FC91FB5
S1131810D01D7EF4703311F48A95E6CFE89401501C
S113182030F0080F0AF40027021708F4202F23953C
S1131830022F7A3328F079E37D932A95E9F710C0D3
S11318407D932A9589F6069497956795379517950C
S11318501794E118F10A430B560BC90BD00998F001
S113186023957E9173957A3308F070E37C9320136B
S1131870B8F77E9170617D9330F0839571E37D9329
S113188070E32A95E1F71124EF90FF900F911F91D7
S1131890CF91DF91992787FD90950895FC010590DC
S11318A0615070400110D8F7809590958E0F9F1F5E
S11318B00895FC016150704001900110D8F78095A3
S11318C090958E0F9F1F08950F931F93CF93DF93CF
S11318D0FB01238121FD03C08FEF9FEF2CC022FF6A
S11318E016C046815781248135814217530744F439
S11318F0A081B1819D012F5F3F4F318320838C9361
S1131900268137812F5F3F4F3783268314C08B0195
S1131910EC01FB010084F185E02D0995892BE1F6AA
S1131920D80116968D919C911797019617969C93C2
S11319308E931697CE01DF91CF911F910F91089549
S1131940FA01AA27283051F1203181F1E8946F93EC
S11319506E7F6E5F7F4F8F4F9F4FAF4FB1E03ED092
S1131960B4E03CD0670F781F891F9A1FA11D680F30
S1131970791F8A1F911DA11D6A0F711D811D911D63
S1131980A11D20D009F468943F912AE0269F1124D8
S11319903019305D3193DEF6CF010895462F47703C
S11319A0405D4193B3E00FD0C9F7F6CF462F4F7097
S11319B0405D4A3318F0495D31FD4052419302D0F5
S11319C0A9F7EACFB4E0A69597958795779567959B
S11319D0BA95C9F700976105710508959B01AC019B
S11319E00A2E06945795479537952795BA95C9F7C2
S11319F0620F731F841F951FA01D08952F923F929D
S1131A004F925F926F927F928F929F92AF92BF920A
S1131A10CF92DF92EF92FF920F931F93CF93DF93B6
S1131A20CDB7DEB7CA1BDB0B0FB6F894DEBF0FBE13
S1131A30CDBF09942A88398848885F846E847D8460
S1131A408C849B84AA84B984C884DF80EE80FD8062
S1131A500C811B81AA81B981CE0FD11D0FB6F894D8
S1111A60DEBF0FBECDBFED010895F894FFCF99
S1131A6E6C2025750073202575007365676D656E92
S1131A7E742025642C2073706565642025750D0A09
S1131A8E004D6F746F72207374617274656420619B
S1131A9E742073706565642025750D0A000D202071
S1131AAE2020202020202020202020202020202024
S1131ABE2020202020202020202020202020202014
S1131ACE2020202020202020202020202020202004
S1131ADE20202020202020202020202020202020F4
S1131AEE20202020202020202020202020202020E4
S1131AFE2020202020202020206C6170203D2025D5
S1131B0E75000D53706565643D2575204F444F3D3A
S1131B1E25336420546F70583D25752048617374C5
S1131B2E3D2573206163633D257320202020200012
S1131B3E0D583D25752053706565643D2575204F00
S1131B4E444F3D25336420546F70583D257520480D
S1131B5E6173743D2573206163633D2573202020DA
S1131B6E2020000D20202020202020202020202096
S1131B7E2020202020202020202020202020202053
S1131B8E2020202020202020202020202020202043
S1131B9E2020202020202020202020202020202033
S1131BAE2020202020202020202020202020202023
S1131BBE2020202020202020202020202020202013
S1131BCE20202020202020202020205365676D65B2
S1111BDE6E7465722062796767657421000079
S9030000FC
