S014000048757274696765725F62696C2E7372656330
S11300000C94A7000C94CC010C94C4000C94C40070
S11300100C94C4000C94C4000C9446030C94C400C7
S11300200C94C4000C9494030C94C4000C947104B8
S11300300C94C4000C94C4000C94C4000C94C4002C
S11300400C94C4000C94C4000C94C4000C94C4001C
S11300500C94C40000407A10F35A00A0724E1809A0
S11300600010A5D4E80000E87648170000E40B541B
S1130070020000CA9A3B000000E1F50500008096EA
S11300809800000040420F000000A086010000001C
S1130090102700000000E8030000000064000000D6
S11300A000000A00000000000100000000002C769F
S11300B0D888DC674F0823DFC1DFAE59E1B1B796BA
S11300C0E5E3E453C63AE651997696E8E6C2842617
S11300D0EB898C9B62ED407C6FFCEFBC9C9F40F2F3
S11300E0BAA56FA5F490055A2AF75C936B6CF9676F
S11300F06DC11BFCE0E40D47FEF520E6B500D0ED34
S1130100902E0300943577050080841E080000209B
S11301104E0A000000C80C333333330F986E128339
S11301201141EF8D2114893BE65516CFFEE6DB180D
S1130130D1844B381BF77C1D901DA4BBE4242032D2
S113014084725E228100C9F124ECA1E53D271124CB
S11301501FBECFE5D8E0DEBFCDBF10E0A0E6B0E023
S1130160E0EBF7E102C005900D92AC3FB107D9F77F
S113017022E0ACEFB0E001C01D92AE37B207E1F768
S11301800E94FE010C94D60B0C94000017B887E86B
S113019086B9089597B1907F8F70892B87B986B1FE
S11301A0806486B93699FECF84B195B108959C01D7
S11301B09091FE00911119C0293582E03807A8F00A
S11301C081E08093FE00E091FF00E23370F48E0F33
S11301D08093FF00F0E080915B0190915C01EE0F51
S11301E0FF1FE35AFE4F918380839091FE0091306C
S11301F0C1F4243F3140A8F41092FE00E091FF00C6
S1130200E23378F481E08E0F8093FF00F0E0809178
S11302105B0190915C01EE0FFF1FE35AFE4F918347
S1130220808308951092FD0020E030E027C0809183
S1130230FD00E82FF0E0D901AA0FBB1FA35ABE4F5F
S11302404D915C91BF01660F771F660F771FE60F14
S1130250F71FEF5FFD4F51834083D9011196AA0F19
S1130260BB1FA35ABE4F4D915C91538342839CE3C1
S113027094838F5F8093FD002E5F3F4F8091FF003A
S113028090E001972817390794F2089520E030E0B0
S11302901EC0F901EE0FFF1FEE0FFF1FE20FF31F49
S11302A0EF5FFD4F408151818417950770F0F9018C
S11302B0EE0FFF1FEE0FFF1FE20FF31FEF5FFD4F67
S11302C0428153818417950758F02F5F3F4F409127
S11302D0FD0050E024173507E4F28FEF9FEF0895F7
S11302E0822F932F0895CF93DF9380915B01909198
S11302F05C010E944601EC019923DCF1FC01EE0F44
S1130300FF1FEE0FFF1FE80FF91FEF5FFD4F848102
S11303100E942B038091FC0090E0C817D90749F193
S1130320C093FC00FE01EE0FFF1FEE0FFF1FEC0F4A
S1130330FD1FEF5FFD4F84811F928F93DF93CF9357
S113034080E690E09F938F931F9280E48F9381ECDB
S113035091E09F938F930E94AC0681EC91E00E9400
S11303609D048DB79EB70A960FB6F8949EBF0FBE34
S11303708DBFDF91CF91089581B38B7F81BB82B311
S11303808B7F82BB85B7826085BF85B78E7F85BF33
S11303908BB780648BBF08951F920F920FB60F9294
S11303A011248F939F938091000190910101C29732
S11303B050F4809100019091010101969093010104
S11303C0809300010AC08091000190910101C297BD
S11303D020F010920101109200019F918F910F90D3
S11303E00FBE0F901F90189581B38F7B81BB82B392
S11303F0806482BB14BA8FEF85BB08950E94F40118
S11304000E942D0387E690E00E948F040E941D0342
S11304100E94C6000E9489040E94BC017894C0E036
S1130420D0E010E00E94AA049923E4F1DD2319F03E
S1130430D13021F037C08337A9F532C030ED380F01
S11304403A3048F4110F912F990F990F190F810F1A
S113045010ED180F27C08D3011F08A3019F5812F57
S11304600E942B031F921F9387E790E09F938F9323
S11304701F9284E38F9381EC91E09F938F930E946A
S1130480AC0681EC91E00E949D042DB73EB7285F35
S11304903F4F0FB6F8943EBF0FBE2DBFD0E002C051
S11304A0D1E010E090911D019923C9F110921D0132
S11304B080E090E00E94CA00F82EE92E81E090E0EE
S11304C00E94CA00082FD92E82E090E00E94CA0040
S11304D0C82EB92E8F2D9E2D0E94D7001F921F93D8
S11304E0BF92CF92DF920F93EF92FF9283E990E055
S11304F09F938F931F9284E38F9381EC91E09F935A
S11305008F930E94AC0681EC91E00E949D048DB70C
S11305109EB70E960FB6F8949EBF0FBE8DBF9091F6
S113052042019923E9F183E090E00E94AD030F2E8C
S1130530F3E4EF2EF1E0FF2EF02DF70164857585CD
S1130540868597850E944004082FD92EF70160857F
S11305507185828593850E944004DF920F939F9357
S11305608F93F701818D8F93808D8F938DEA90E027
S11305709F938F931F9284E38F9381EC91E09F93D9
S11305808F930E94AC0681EC91E00E949D042DB7EC
S11305903EB7245F3F4F0FB6F8943EBF0FBE2DBF4A
S11305A02C2F30E0409100015091010124173507B0
S11305B0C9F18091000190910101C82F809100013F
S11305C0909101019F938F938BEC90E09F938F9375
S11305D01F9284E38F9321EC31E03F932F930E9489
S11305E0AC0681EC91E00E949D0480910001909101
S11305F00101EDB7FEB738960FB6F894FEBF0FBEF3
S1130600EDBF019779F40E94120183E1E8EEF0E076
S1130610A1ECB1E001900D928A95E1F781EC91E0B3
S11306200E949D0420910001309101012230310586
S113063008F4F8CE0E947301F5CE81B3806881BBC3
S113064085B5886485BD85B5806285BD85B58460C2
S113065085BD13BC089583BD089588B7806288BFA3
S113066089B7877E89BF89B7846089BF89B780626B
S113067089BF1FBC83E88EBDEEE1F1E011821082D8
S113068014A210925C0110925B0108951F920F92C4
S11306900FB60F9211242F933F934F935F936F9351
S11306A07F938F939F93AF93BF93EF93FF93EEE169
S11306B0F1E082A193A101968770992793A382A365
S11306C04081518160E070E0BA015527442726B586
S11306D037B5420F531F611D711D880F991F880F75
S11306E0991FDC01A25EBE4F12964D935D936D93EC
S11306F07C93159781E084A3E3E4F1E0808D918DF0
S11307000196918F808FFF91EF91BF91AF919F914F
S11307108F917F916F915F914F913F912F910F90A6
S11307200FBE0F901F9018951F920F920FB60F9245
S113073011248F939F93EF93FF93EEE1F1E0808177
S11307409181019691838083FF91EF919F918F9185
S11307500F900FBE0F901F9018954F925F926F925B
S11307607F928F929F92AF92BF92CF92DF92EF923D
S1130770FF92CF93DF93BC01892B11F461E070E009
S1130780EEE1F1E014A222A133A1F901EE0FFF1F63
S1130790EE0FFF1FE25EFE4FC280D380E480F5803F
S11307A0F901E61BF70BE770FF27EE0FFF1FEE0FB3
S11307B0FF1FE25EFE4F82819381A481B581C81A36
S11307C0D90AEA0AFB0AC3E4D1E0C882D982EA82E0
S11307D0FB8288849984AA84BB848C829D82AE82A5
S11307E0BF82072E000C880B990B0E94930520E012
S11307F034EC46E857E40E941F062B013C01C70174
S1130800B6010E9493056B017C019B01AC01C301FD
S1130810B2010E941F052B013C01688779878A87F2
S11308209B87A50194010E94B20420E030E543ECCB
S113083057E40E941F06A70196010E941F056C87BA
S11308407D878E879F87488A598A6A8A7B8A20E0B7
S113085030E040E251E40E941F066C8B7D8B8E8B4E
S11308609F8BDF91CF91FF90EF90DF90CF90BF905F
S1130870AF909F908F907F906F905F904F9008956E
S11308800F931F9320911A0130911B012F5F3F4F4B
S11308902170332730931B0120931A018901000F23
S11308A0111F020F131F000F111F000F111F0E5FE6
S11308B01E4F22E030E046E050E00E948C0680911A
S11308C01A0190911B019C01220F331F820F931F69
S11308D0880F991F880F991F8E5F9E4F1F910F914C
S11308E008951F920F920FB60F9211248F93809147
S11308F01C018F5F80931C018C3028F010921C0126
S113090081E080931D018F910F900FBE0F901F9077
S1130910189585E083BF89B7816089BF089521B3A5
S1130920226021BB90BD89B988E18AB986E880BD7F
S113093008955D9BFECF8CB90895CF93DF93EC01AE
S113094003C021960E94990488818111FACFDF9116
S1130950CF9108955F9B03C08CB190E008958FEF11
S11309609FEF08955058BB27AA270E94CA040C94ED
S1130970E5050E94D70538F00E94DE0520F039F421
S11309809F3F19F426F40C94D4050EF4E095E7FB8C
S11309900C94CE05E92F0E94F60558F3BA176207A6
S11309A073078407950720F079F4A6F50C941806CC
S11309B00EF4E0950B2EBA2FA02D0B01B901900176
S11309C00C01CA01A0011124FF27591B99F0593FBA
S11309D050F4503E68F11A16F040A22F232F342F02
S11309E04427585FF3CF469537952795A795F04050
S11309F05395C9F77EF41F16BA0B620B730B840B65
S1130A00BAF09150A1F0FF0FBB1F661F771F881F1C
S1130A10C2F70EC0BA0F621F731F841F48F4879574
S1130A2077956795B795F7959E3F08F0B0CF939566
S1130A30880F08F09927EE0F9795879508950E94DF
S1130A4033050C94E5050E94DE0558F00E94D70595
S1130A5040F029F45F3F29F00C94CE0551110C9419
S1130A6019060C94D4050E94F60568F39923B1F392
S1130A70552391F3951B550BBB27AA2762177307C0
S1130A80840738F09F5F5F4F220F331F441FAA1F54
S1130A90A9F335D00E2E3AF0E0E832D09150504010
S1130AA0E695001CCAF72BD0FE2F29D0660F771FBE
S1130AB0881FBB1F261737074807AB07B0E809F0A4
S1130AC0BB0B802DBF01FF2793585F4F3AF09E3F29
S1130AD0510578F00C94CE050C9419065F3FE4F3AD
S1130AE0983ED4F3869577956795B795F7959F5F6C
S1130AF0C9F7880F911D9695879597F90895E1E0B8
S1130B00660F771F881FBB1F621773078407BA0716
S1130B1020F0621B730B840BBA0BEE1F88F7E09571
S1130B200895E89409C097FB3EF4909580957095DC
S1130B3061957F4F8F4F9F4F9923A9F0F92F96E925
S1130B40BB279395F695879577956795B795F1119A
S1130B50F8CFFAF4BB0F11F460FF1BC06F5F7F4F37
S1130B608F4F9F4F16C0882311F096E911C0772349
S1130B7021F09EE8872F762F05C0662371F096E852
S1130B80862F70E060E02AF09A95660F771F881F21
S1130B90DAF7880F9695879597F9089597F99F67DF
S1130BA080E870E060E008959FEF80EC08950024F1
S1130BB00A941616170618060906089500240A94BE
S1130BC012161306140605060895092E0394000C44
S1130BD011F4882352F0BB0F40F4BF2B11F460FFD3
S1130BE004C06F5F7F4F8F4F9F4F089557FD9058FC
S1130BF0440F551F59F05F3F71F04795880F97FBDD
S1130C00991F61F09F3F79F0879508951216130696
S1130C101406551FF2CF4695F1DF08C016161706C5
S1130C201806991FF1CF86957105610508940895FA
S1130C30E894BB2766277727CB0197F908950E948C
S1130C4032060C94E5050E94D70538F00E94DE05B3
S1130C5020F0952311F00C94CE050C94D4051124A6
S1130C600C9419060E94F60570F3959FC1F3950F35
S1130C7050E0551F629FF001729FBB27F00DB11D1C
S1130C80639FAA27F00DB11DAA1F649F6627B00DAC
S1130C90A11D661F829F2227B00DA11D621F739F95
S1130CA0B00DA11D621F839FA00D611D221F749FA3
S1130CB03327A00D611D231F849F600D211D822FEA
S1130CC0762F6A2F11249F5750409AF0F1F0882311
S1130CD04AF0EE0FFF1FBB1F661F771F881F91503E
S1130CE05040A9F79E3F510580F00C94CE050C941A
S1130CF019065F3FE4F3983ED4F38695779567959C
S1130D00B795F795E7959F5FC1F7FE2B880F911D67
S1130D109695879597F90895EF920F931F93CF9324
S1130D20DF93E80147FD02C034E001C034E1042E42
S1130D30000C550B57FF03C0519541955109E32E03
S1130D40022F242FAE010E94BD08CE01DF91CF9166
S1130D501F910F91EF900895AEE0B0E0E2EBF6E062
S1130D600C94AD0B0D891E898F89988D26E02C83F8
S1130D701A83098397FF02C080E090E801979E835D
S1130D808D83AE01455E5F4F698D7A8DCE010196EC
S1130D900E94DC064D815E8157FD0AC02F81388593
S1130DA0421753070CF49A01F801E20FF31F108263
S1130DB02E96E4E00C94C90BABE0B0E0E2EEF6E072
S1130DC00C949F0B6C017B018A01FC011782168233
S1130DD0838181FFCCC1CE0101963C01F601938150
S1130DE0F70193FD859193FF81917F01882309F495
S1130DF0BAC1853239F493FD859193FF81917F01C6
S1130E00853229F4B60190E00E94050BE7CF912CBE
S1130E10212C312CFFE1F315D8F08B3279F038F422
S1130E20803279F08332A1F4232D20611DC08D32EC
S1130E3061F0803369F4232D216016C0832D826014
S1130E40382EE32DE4603E2E2AC0F32DF8601DC039
S1130E5037FC2DC020ED280F2A3040F08E32B9F433
S1130E6036FC81C1232D2064322E19C036FE06C003
S1130E708AE0989E200D1124922E11C0EAE02E9E45
S1130E80200D1124222EF32DF0623F2E08C08C3643
S1130E9021F4832D8068382E02C0883641F4F7018E
S1130EA093FD859193FF81917F018111B3CF982F99
S1130EB09F7D9554933028F40C5F1F4F9FE39983D3
S1130EC00DC0833631F0833771F0833509F059C092
S1130ED021C0F801808189830E5F1F4F8824839489
S1130EE0912C530113C02801F2E04F0E511CF8015C
S1130EF0A080B18036FE03C0692D70E002C06FEFA0
S1130F007FEFC5010E94FA0A4C018201F32DFF779D
S1130F103F2E16C0280122E0420E511CF801A08089
S1130F20B18036FE03C0692D70E002C06FEF7FEF21
S1130F30C5010E94EF0A4C01F32DF0683F2E820197
S1130F4033FC1BC0822D90E088169906B0F4B601DC
S1130F5080E290E00E94050B2A94F4CFF50137FC5F
S1130F60859137FE81915F01B60190E00E94050BE7
S1130F7021102A9421E0821A91088114910471F7B6
S1130F80E8C0843611F0893641F5F80137FE07C010
S1130F9060817181828193810C5F1F4F08C06081E1
S1130FA07181072E000C880B990B0E5F1F4FF32DD8
S1130FB0FF763F2E97FF09C09095809570956195B7
S1130FC07F4F8F4F9F4FF0683F2E2AE030E0A30100
S1130FD00E94410B882E861845C0853731F4232D95
S1130FE02F7EB22E2AE030E025C0932D997FB92EB2
S1130FF08F36C1F018F4883579F0B5C0803719F010
S1131000883721F0B0C0E92FE061BE2EB4FE0DC0D8
S1131010FB2DF460BF2E09C034FE0AC0292F2660C0
S1131020B22E06C028E030E005C020E130E002C066
S113103020E132E0F801B7FE07C06081718182814E
S113104093810C5F1F4F06C06081718180E090E046
S11310500E5F1F4FA3010E94410B882E8618FB2DA3
S1131060FF773F2E36FE0DC0232D2E7FA22E89142E
S113107058F434FE0BC032FC09C0832D8E7EA82E9A
S113108005C0B82CA32C03C0B82C01C0B92CA4FEF5
S11310900FC0FE01E80DF11D8081803321F49A2DEB
S11310A0997EA92E09C0A2FE06C0B394B39404C0CD
S11310B08A2D867809F0B394A3FC11C0A0FE06C063
S11310C0B21488F4280C922C9B180EC0B21460F44D
S11310D0B60180E290E00E94050BB394F7CFB214FE
S11310E018F42B1802C0982C212CA4FE10C0B601B1
S11310F080E390E00E94050BA2FE17C0A1FC03C090
S113110088E790E002C088E590E0B6010CC08A2D23
S1131110867859F0A1FE02C08BE201C080E2A7FCF0
S11311208DE2B60190E00E94050B891438F4B601F3
S113113080E390E00E94050B9A94F7CF8A94F30120
S1131140E80DF11D8081B60190E00E94050B81102D
S1131150F5CF222009F442CEB60180E290E00E944D
S1131160050B2A94F6CFF6018681978102C08FEF92
S11311709FEF2B96E2E10C94BB0BA9E0B0E0E3EC0B
S1131180F8E00C94A50B6A01122FB02E2BE3201764
S113119020F0FF24F394F00E02C02CE3F22E0F2D66
S11311A027E0AE014F5F5F4F0E94170ABC014981DF
S11311B0842F8970813031F0E1FC06C0E0FE06C066
S11311C090E205C09DE203C09BE201C090E05E2D69
S11311D0507143FF3CC0911102C083E001C084E020
S11311E0811718F4212F281B01C020E051110BC0D6
S11311F0F601822F30E2882319F031938150FBCF1E
S1131200C20ED11C20E0992329F0D6019C93F6014B
S113121031966F01C6010396E2FE0AC03EE4D60190
S11312203C9341E411964C93119712963C9306C05B
S11312303EE6F601308341E641833283FC01322FDE
S113124040E2332309F442C041933150FACF42FFC4
S113125044C0911102C083E001C084E0811718F4F6
S1131260212F281B01C020E051110BC0F601822F51
S113127030E2882319F031938150FBCFC20ED11C88
S113128020E0992329F0D6019C93F60131966F0151
S1131290C6010396E2FE0BC039E4D6013C933EE45A
S11312A011963C93119736E412963C9307C039E6A5
S11312B0F60130833EE6318336E63283FC01322F79
S11312C040E2332319F041933150FBCFFC01E20F8C
S11312D0F11D10828EEF9FEFA6C021E030E0911146
S11312E002C020E030E0161617061CF4FB0131960C
S11312F002C0E1E0F0E02E0F3F1FBB2021F0EB2DF8
S1131300F0E0319602C0E0E0F0E02E0F3F1FE12F45
S1131310F0E02E173F071CF4121B212F01C020E020
S11313208E2D887159F4F601822F30E2882319F04A
S113133031938150FBCFC20ED11C20E0992329F0B8
S1131340D6019C93F60131966F0151110BC0F60141
S1131350822F90E3882319F091938150FBCFC20E22
S1131360D11C20E00F2D060F9A81342F307144FFD9
S113137003C0913309F40150101624F4093018F015
S113138008E001C001E0AB0177FF02C040E050E09B
S1131390FB01E41BF50BA1E0B0E0AC0FBD1FEA0FAD
S11313A0FB1F8EE2A82E4B01801A91080B2D10E032
S11313B01195019511094F3FBFEF5B0721F4D60149
S11313C0AC9211966D01641775072CF0841695067E
S11313D014F4818101C080E3415051093196D60152
S11313E011967D014017510724F0D6018C936701B3
S11313F0E2CF6417750739F4963320F4953319F462
S1131400311101C081E3F6018083F701822F90E25C
S1131410882319F091938150FBCFF701E20FF11D5E
S1131420108280E090E02996ECE00C94C10B283007
S113143008F027E03327DA01990F311D87FD916009
S113144000966105710539F432602E5F3D9330E3F7
S11314502A95E1F708959F3F30F0803871056105C2
S113146009F03C5F3C5F3D93913008F08068911D2A
S1131470DF93CF931F930F93FF92EF92192F987FCF
S11314809695E92F96959695E90FFF27E255FF4F1C
S113149099273327EE24FF24A701E7010590089438
S11314A0079428F4360FE71EF81E491F511D660FD6
S11314B0771F881F991F0694A1F70590079428F4B5
S11314C0E70EF81E491F561FC11D770F881F991F6D
S11314D0661F0694A1F70590079428F4F80E491F97
S11314E0561FC71FD11D880F991F661F771F0694AB
S11314F0A1F70590079420F4490F561FC71FD81F62
S1131500990F661F771F881F0694A9F78491109579
S1131510177041F0D695C79557954795F794E7947A
S11315201A95C1F7E4E5F0E06894159015913591AA
S11315306591959105907FE27395E118F10A430B4B
S1131540560BC90BD009C0F7E10CF11E431F561FFF
S1131550C91FD01D7EF4703311F48A95E6CFE89448
S1131560015030F0080F0AF40027021708F4202F66
S11315702395022F7A3328F079E37D932A95E9F7AE
S113158010C07D932A9589F60694979567953795AB
S113159017951794E118F10A430B560BC90BD009A0
S11315A098F023957E9173957A3308F070E37C93D9
S11315B02013B8F77E9170617D9330F0839571E3C9
S11315C07D9370E32A95E1F71124EF90FF900F913A
S11315D01F91CF91DF91992787FD90950895FC0184
S11315E00590615070400110D8F7809590958E0F4A
S11315F09F1F0895FC016150704001900110D8F7BD
S1131600809590958E0F9F1F08950F931F93CF93EE
S1131610DF93FB01238121FD03C08FEF9FEF2CC0DB
S113162022FF16C046815781248135814217530712
S113163044F4A081B1819D012F5F3F4F318320830A
S11316408C93268137812F5F3F4F3783268314C0C5
S11316508B01EC01FB010084F185E02D0995892BB8
S1131660E1F6D80116968D919C91179701961796DD
S11316709C938E931697CE01DF91CF911F910F917A
S11316800895FA01AA27283051F1203181F1E89414
S11316906F936E7F6E5F7F4F8F4F9F4FAF4FB1E061
S11316A03ED0B4E03CD0670F781F891F9A1FA11D5C
S11316B0680F791F8A1F911DA11D6A0F711D811D5D
S11316C0911DA11D20D009F468943F912AE0269F22
S11316D011243019305D3193DEF6CF010895462F81
S11316E04770405D4193B3E00FD0C9F7F6CF462F62
S11316F04F70405D4A3318F0495D31FD40524193CB
S113170002D0A9F7EACFB4E0A69597958795779587
S11317106795BA95C9F700976105710508959B010E
S1131720AC010A2E06945795479537952795BA9597
S1131730C9F7620F731F841F951FA01D08952F9270
S11317403F924F925F926F927F928F929F92AF924D
S1131750BF92CF92DF92EF92FF920F931F93CF939A
S1131760DF93CDB7DEB7CA1BDB0B0FB6F894DEBF31
S11317700FBECDBF09942A88398848885F846E8457
S11317807D848C849B84AA84B984C884DF80EE80A1
S1131790FD800C811B81AA81B981CE0FD11D0FB6AA
S11317A0F894DEBF0FBECDBFED010895F894FFCFCE
S11317B07365676D656E742025642C207370656590
S11317C0642025750D0A004D6F746F722073746167
S11317D07274656420617420737065656420257576
S11317E00D0A00583D257520593D2575205A3D2583
S11317F0752056616C75653D25750D0A004F444F83
S11318003D2533642020486173743D2025387320BE
S1131810204163633D2538730D0A0042696C656E8F
S1131820206572207061612073696E202575206FB8
S11318306D67616E670D0A005365676D656E74654B
S10F184072206279676765740D0A00006D
S9030000FC
