S014000048757274696765725F62696C2E7372656330
S11300000C942A000C947C010C9447000C94470037
S11300100C9447000C9447000C9428030C9447005C
S11300200C9447000C9476030C9447000C9422041F
S11300300C9447000C9447000C9447000C94470020
S11300400C9447000C9447000C9447000C94470010
S11300500C94470011241FBECFE5D8E0DEBFCDBF0E
S113006011E0A0E6B0E0E4EBF2E102C005900D92ED
S1130070A839B107D9F723E0A8E9B1E001C01D927E
S1130080A43CB207E1F70E94CB010C9458090C94EC
S1130090000017B887E886B9089597B1907F8F70EC
S11300A0892B87B986B1806486B93699FECF84B12D
S11300B095B1089520919801211108C0845391406D
S11300C0CD9750F081E08093980106C08954914007
S11300D0439710F410929801809198010895E0914B
S11300E09D01E233C0F491E09E0F90939D01F0E0F6
S11300F02091E1013091E201EE0FFF1FED51FE4F1F
S113010031832083811104C08CE60E944A0408953F
S113011083E70E944A04089510929C0140E050E055
S113012040C020919C01822F90E0FA01EE0FFF1F46
S1130130ED51FE4F60817181FC01EE0FFF1FEE0F48
S1130140FF1FE80FF91FE95BFD4F71836083DA013C
S11301501196AA0FBB1FAD51BE4F6D917C91738355
S1130160628320FF0DC0FC01EE0FFF1FEE0FFF1F87
S11301708E0F9F1FFC01E95BFD4F84E684830CC056
S1130180FC01EE0FFF1FEE0FFF1F8E0F9F1FFC01E0
S1130190E95BFD4F8CE384832F5F20939C014E5FCA
S11301A05F4F80919D0190E00197481759070CF427
S11301B0B8CF80919C01882391F090E00197FC01D5
S11301C0EE0FFF1FEE0FFF1F8E0F9F1FFC01E95B59
S11301D0FD4F8281938190939A01809399010895B0
S11301E06091990170919A010E943D0620E030E0EF
S11301F01EC0F901EE0FFF1FEE0FFF1FE20FF31FEA
S1130200E95BFD4F408151818417950770F0F90136
S1130210EE0FFF1FEE0FFF1FE20FF31FE95BFD4F11
S1130220428153818417950758F02F5F3F4F4091C7
S11302309C0150E024173507E4F28FEF9FEF0895F7
S1130240822F932F0895CF93DF938091E1019091B2
S1130250E2010E94F000EC019923DCF1FC01EE0FB5
S1130260FF1FEE0FFF1FE80FF91FE95BFD4F8481AD
S11302700E940D0380919B0190E0C817D90749F1B2
S1130280C0939B01FE01EE0FFF1FEE0FFF1FEC0F4B
S1130290FD1FE95BFD4F84811F928F93DF93CF9302
S11302A080E690E09F938F931F9280E48F9384EC79
S11302B092E09F938F930E94600684EC92E00E94E8
S11302C04E048DB79EB70A960FB6F8949EBF0FBE24
S11302D08DBFDF91CF91089581B38B7F81BB82B3B2
S11302E08B7F82BB85B7826085BF85B78E7F85BFD4
S11302F08BB780648BBF08951F920F920FB60F9235
S113030011242F933F934F935F938F939F938091E7
S1130310E1019091E20120919E0130919F01AC0195
S1130320421B530B4333510508F12091A001309136
S1130330A1012233310558F42091A0013091A1018B
S11303402F5F3F4F3093A1012093A0010BC0209158
S1130350A0013091A1012233310520F01092A101B6
S11303601092A00190939F0180939E019F918F9181
S11303705F914F913F912F910F900FBE0F901F905F
S1130380189581B38F7B81BB82B3806482BB14BA1E
S11303908FEF85BB0895CF93DF93CDB7DEB76E970C
S11303A00FB6F894DEBF0FBECDBF0E94C1010E94FC
S11303B00F0387E690E00E9440040E94FF020E941F
S11303C049000E943A040E946C01789410E0612C68
S11303D0C12CD12CB12C00E0A12C712C0E945B0407
S11303E09923ECF1AA2021F031E0A31621F037C0C3
S11303F08337A9F531C030ED380F3A3060F4770C0B
S1130400972D990F990F790E870D0F2EF0ED7F2EF2
S1130410F02D780E24C08D3011F08A3001F5872D2F
S11304200E940D031F927F9287E790E09F938F9322
S113043081E08F931F9284EC92E09F938F930E94AC
S1130440600684EC92E00E944E040FB6F894DEBF7E
S11304500FBECDBFA12C03C0AA24A394712C8091FC
S1130460A301882309F47AC01092A30182E090E0EA
S11304700E944D007C01412F50E0FA01EE0FFF1F56
S113048081E090E08C0F9D1FE80FF91FF182E0825C
S11304904F5F5F4F9A01A9E8B8E80E94510696950C
S11304A087959695879596958795142F2FE0829F2B
S11304B01019112480E020E030E00FC0E82FF0E0B4
S11304C0EE0FFF1F41E050E04C0F5D1FE40FF51FDE
S11304D040815181240F351F8F5F8F3078F3A9E855
S11304E0B8E80E9451064C01969487949694879498
S11304F096948794C4010E945A00582E681619F0E5
S11305000E946F00652CCE14DF0408F46701B394D5
S113051053E15B1518F5DF92CF92E9ECF1E0818DA0
S11305208F93808D8F931F927F929F928F9283E9F6
S113053090E09F938F9381E08F931F9284EC92E0DD
S11305409F938F930E94600684EC92E00E944E0475
S11305500FB6F894DEBF0FBECDBFB12C8091C80199
S1130560882321F083E090E00E948F03802F90E0A5
S11305702091A0013091A10182179307B1F18091DC
S1130580A0019091A101082F8091A0019091A10157
S11305909F938F9389EB90E09F938F9381E08F9348
S11305A01F9284EC92E09F938F930E94600684ECE8
S11305B092E00E944E048091A0019091A1010FB697
S11305C0F894DEBF0FBECDBF019779F40E948C0072
S11305D08AE7EEE1F1E0A4ECB2E001900D928A9595
S11305E0E1F784EC92E00E944E048091A001909186
S11305F0A101029708F4F2CE0E942301EFCE81B349
S1130600806881BB85B5886485BD85B5806285BDFC
S113061085B5846085BD13BC089583BD089588B7EE
S1130620806288BF89B7877E89BF89B7846089BFA4
S113063089B7806289BF1FBC83E88EBDE4EAF1E01C
S11306401182108214A21092E2011092E101089525
S11306501F920F920FB60F9211242F933F934F9333
S11306605F936F937F938F939F93AF93BF93EF9316
S1130670FF93E4EAF1E082A193A1019687709927A0
S113068093A382A34081518160E070E0BA015527B1
S1130690442726B537B5420F531F611D711D880FBE
S11306A0991F880F991FDC01AC55BE4F12964D93CC
S11306B05D936D937C93159781E084A3E9ECF1E05D
S11306C0808D918D0196918F808FFF91EF91BF91D5
S11306D0AF919F918F917F916F915F914F913F91D6
S11306E02F910F900FBE0F901F9018951F920F928D
S11306F00FB60F9211248F939F93EF93FF93E4EA25
S1130700F1E080819181019691838083FF91EF9143
S11307109F918F910F900FBE0F901F9018954F923D
S11307205F926F927F928F929F92AF92BF92CF927D
S1130730DF92EF92FF92CF93DF93BC01892B11F4E8
S113074061E070E0E4EAF1E014A222A133A1F9012E
S1130750EE0FFF1FEE0FFF1FEC55FE4FC280D3803C
S1130760E480F580F901E61BF70BE770FF27EE0F35
S1130770FF1FEE0FFF1FEC55FE4F82819381A48172
S1130780B581C81AD90AEA0AFB0AC9ECD1E0C882C1
S1130790D982EA82FB8288849984AA84BB848C826D
S11307A09D82AE82BF82072E000C880B990B0E949B
S11307B0440520E034EC46E857E40E94D0052B01C0
S11307C03C01C701B6010E9444056B017C019B01F9
S11307D0AC01C301B2010E94D0042B013C01688723
S11307E079878A879B87A50194010E94630420E08E
S11307F030E543EC57E40E94D005A70196010E941E
S1130800D0046C877D878E879F87488A598A6A8A35
S11308107B8A20E030E040E251E40E94D0056C8BFA
S11308207D8B8E8B9F8BDF91CF91FF90EF90DF902C
S1130830CF90BF90AF909F908F907F906F905F907C
S11308404F9008951F920F920FB60F9211248F9319
S11308508091A2018F5F8093A201853028F01092CD
S1130860A20181E08093A3018F910F900FBE0F909E
S11308701F90189583E083BF89B7816089BF08956D
S113088021B3226021BB90BD89B988E18AB986E889
S113089080BD08955D9BFECF8CB90895CF93DF93FF
S11308A0EC0103C021960E944A0488818111FACF89
S11308B0DF91CF9108955F9B03C08CB190E00895C0
S11308C08FEF9FEF08955058BB27AA270E947B04FF
S11308D00C9496050E94880538F00E948F0520F03C
S11308E039F49F3F19F426F40C9485050EF4E09531
S11308F0E7FB0C947F05E92F0E94A70558F3BA176C
S1130900620773078407950720F079F4A6F50C9421
S1130910C9050EF4E0950B2EBA2FA02D0B01B901D9
S113092090010C01CA01A0011124FF27591B99F061
S1130930593F50F4503E68F11A16F040A22F232F6D
S1130940342F4427585FF3CF469537952795A795BD
S1130950F0405395C9F77EF41F16BA0B620B730B64
S1130960840BBAF09150A1F0FF0FBB1F661F771FD5
S1130970881FC2F70EC0BA0F621F731F841F48F48A
S1130980879577956795B795F7959E3F08F0B0CF13
S11309909395880F08F09927EE0F979587950895FA
S11309A00E94E4040C9496050E948F0558F00E945E
S11309B0880540F029F45F3F29F00C947F0551111C
S11309C00C94CA050C9485050E94A70568F3992325
S11309D0B1F3552391F3951B550BBB27AA27621737
S11309E07307840738F09F5F5F4F220F331F441F44
S11309F0AA1FA9F335D00E2E3AF0E0E832D0915078
S1130A005040E695001CCAF72BD0FE2F29D0660F64
S1130A10771F881FBB1F261737074807AB07B0E8A7
S1130A2009F0BB0B802DBF01FF2793585F4F3AF0AD
S1130A309E3F510578F00C947F050C94CA055F3FE6
S1130A40E4F3983ED4F3869577956795B795F79533
S1130A509F5FC9F7880F911D9695879597F908951B
S1130A60E1E0660F771F881FBB1F621773078407B7
S1130A70BA0720F0621B730B840BBA0BEE1F88F7C6
S1130A80E0950895E89409C097FB3EF4909580950D
S1130A90709561957F4F8F4F9F4F9923A9F0F92F40
S1130AA096E9BB279395F695879577956795B795BE
S1130AB0F111F8CFFAF4BB0F11F460FF1BC06F5FA4
S1130AC07F4F8F4F9F4F16C0882311F096E911C0B6
S1130AD0772321F09EE8872F762F05C0662371F0D7
S1130AE096E8862F70E060E02AF09A95660F771FEB
S1130AF0881FDAF7880F9695879597F9089597F9DF
S1130B009F6780E870E060E008959FEF80EC0895AF
S1130B1000240A94161617061806090608950024D8
S1130B200A9412161306140605060895092E039452
S1130B30000C11F4882352F0BB0F40F4BF2B11F4C6
S1130B4060FF04C06F5F7F4F8F4F9F4F089557FD25
S1130B509058440F551F59F05F3F71F04795880F27
S1130B6097FB991F61F09F3F79F0879508951216BE
S1130B7013061406551FF2CF4695F1DF08C016166A
S1130B8017061806991FF1CF86957105610508941B
S1130B900895E894BB2766277727CB0197F9089532
S1130BA00E94E3050C9496050E94880538F00E9483
S1130BB08F0520F0952311F00C947F050C94850586
S1130BC011240C94CA050E94A70570F3959FC1F3E4
S1130BD0950F50E0551F629FF001729FBB27F00DE7
S1130BE0B11D639FAA27F00DB11DAA1F649F66273C
S1130BF0B00DA11D661F829F2227B00DA11D621F8B
S1130C00739FB00DA11D621F839FA00D611D221F44
S1130C10749F3327A00D611D231F849F600D211D28
S1130C20822F762F6A2F11249F5750409AF0F1F0AB
S1130C3088234AF0EE0FFF1FBB1F661F771F881F14
S1130C4091505040A9F79E3F510580F00C947F05C8
S1130C500C94CA055F3FE4F3983ED4F386957795E8
S1130C606795B795F795E7959F5FC1F7FE2B880FBA
S1130C70911D9695879597F90895AA1BBB1B51E181
S1130C8007C0AA1FBB1FA617B70710F0A61BB70BF8
S1130C90881F991F5A95A9F780959095BC01CD019D
S1130CA00895A29FB001B39FC001A39F700D811D41
S1130CB01124911DB29F700D811D1124911D089561
S1130CC0AEE0B0E0E6E6F6E00C942F090D891E894B
S1130CD08F89988D26E02C831A83098397FF02C09D
S1130CE080E090E801979E838D83AE01455E5F4F5F
S1130CF0698D7A8DCE0101960E9490064D815E81A8
S1130D0057FD0AC02F813885421753070CF49A0106
S1130D10F801E20FF31F10822E96E4E00C944B09C5
S1130D20ABE0B0E0E6E9F6E00C9421096C017B014C
S1130D308A01FC0117821682838181FFCCC1CE0116
S1130D4001963C01F6019381F70193FD859193FF90
S1130D5081917F01882309F4BAC1853239F493FD66
S1130D60859193FF81917F01853229F4B60190E04A
S1130D700E948708E7CF912C212C312CFFE1F31539
S1130D80D8F08B3279F038F4803279F08332A1F4E0
S1130D90232D20611DC08D3261F0803369F4232D31
S1130DA0216016C0832D8260382EE32DE4603E2E30
S1130DB02AC0F32DF8601DC037FC2DC020ED280F8C
S1130DC02A3040F08E32B9F436FC81C1232D2064E0
S1130DD0322E19C036FE06C08AE0989E200D1124DA
S1130DE0922E11C0EAE02E9E200D1124222EF32D06
S1130DF0F0623F2E08C08C3621F4832D8068382E93
S1130E0002C0883641F4F70193FD859193FF8191E7
S1130E107F018111B3CF982F9F7D9554933028F48F
S1130E200C5F1F4F9FE399830DC0833631F08337E6
S1130E3071F0833509F059C021C0F801808189839C
S1130E400E5F1F4F88248394912C530113C02801F3
S1130E50F2E04F0E511CF801A080B18036FE03C0B1
S1130E60692D70E002C06FEF7FEFC5010E947C081E
S1130E704C018201F32DFF773F2E16C0280122E09A
S1130E80420E511CF801A080B18036FE03C0692DCA
S1130E9070E002C06FEF7FEFC5010E9471084C0142
S1130EA0F32DF0683F2E820133FC1BC0822D90E0AD
S1130EB088169906B0F4B60180E290E00E94870893
S1130EC02A94F4CFF50137FC859137FE81915F01B7
S1130ED0B60190E00E94870821102A9421E0821A2A
S1130EE091088114910471F7E8C0843611F08936B1
S1130EF041F5F80137FE07C06081718182819381D9
S1130F000C5F1F4F08C060817181072E000C880B95
S1130F10990B0E5F1F4FF32DFF763F2E97FF09C0ED
S1130F2090958095709561957F4F8F4F9F4FF06896
S1130F303F2E2AE030E0A3010E94C308882E8618C1
S1130F4045C0853731F4232D2F7EB22E2AE030E0C0
S1130F5025C0932D997FB92E8F36C1F018F48835AA
S1130F6079F0B5C0803719F0883721F0B0C0E92F87
S1130F70E061BE2EB4FE0DC0FB2DF460BF2E09C08F
S1130F8034FE0AC0292F2660B22E06C028E030E0C5
S1130F9005C020E130E002C020E132E0F801B7FEF4
S1130FA007C060817181828193810C5F1F4F06C0ED
S1130FB06081718180E090E00E5F1F4FA3010E9469
S1130FC0C308882E8618FB2DFF773F2E36FE0DC0F2
S1130FD0232D2E7FA22E891458F434FE0BC032FC2C
S1130FE009C0832D8E7EA82E05C0B82CA32C03C067
S1130FF0B82C01C0B92CA4FE0FC0FE01E80DF11DF0
S11310008081803321F49A2D997EA92E09C0A2FEF5
S113101006C0B394B39404C08A2D867809F0B394BF
S1131020A3FC11C0A0FE06C0B21488F4280C922CB4
S11310309B180EC0B21460F4B60180E290E00E94E6
S11310408708B394F7CFB21418F42B1802C0982C65
S1131050212CA4FE10C0B60180E390E00E94870812
S1131060A2FE17C0A1FC03C088E790E002C088E597
S113107090E0B6010CC08A2D867859F0A1FE02C01A
S11310808BE201C080E2A7FC8DE2B60190E00E94F1
S11310908708891438F4B60180E390E00E94870839
S11310A09A94F7CF8A94F301E80DF11D8081B6017B
S11310B090E00E9487088110F5CF222009F442CEE7
S11310C0B60180E290E00E9487082A94F6CFF601E8
S11310D08681978102C08FEF9FEF2B96E2E10C94FB
S11310E03D09FC010590615070400110D8F78095CE
S11310F090958E0F9F1F0895FC01615070400190E0
S11311000110D8F7809590958E0F9F1F08950F9327
S11311101F93CF93DF93FB01238121FD03C08FEF46
S11311209FEF2CC022FF16C0468157812481358150
S11311304217530744F4A081B1819D012F5F3F4FB3
S1131140318320838C93268137812F5F3F4F3783F0
S1131150268314C08B01EC01FB010084F185E02D92
S11311600995892BE1F6D80116968D919C911797D4
S1131170019617969C938E931697CE01DF91CF918B
S11311801F910F910895FA01AA27283051F12031B7
S113119081F1E8946F936E7F6E5F7F4F8F4F9F4F07
S11311A0AF4FB1E03ED0B4E03CD0670F781F891F49
S11311B09A1FA11D680F791F8A1F911DA11D6A0F17
S11311C0711D811D911DA11D20D009F468943F91CA
S11311D02AE0269F11243019305D3193DEF6CF01C9
S11311E00895462F4770405D4193B3E00FD0C9F78F
S11311F0F6CF462F4F70405D4A3318F0495D31FDFC
S11312004052419302D0A9F7EACFB4E0A69597954E
S1131210879577956795BA95C9F700976105710524
S113122008959B01AC010A2E06945795479537956E
S11312302795BA95C9F7620F731F841F951FA01DC8
S113124008952F923F924F925F926F927F928F9266
S11312509F92AF92BF92CF92DF92EF92FF920F9341
S11312601F93CF93DF93CDB7DEB7CA1BDB0B0FB64B
S1131270F894DEBF0FBECDBF09942A883988488808
S11312805F846E847D848C849B84AA84B984C8849E
S1131290DF80EE80FD800C811B81AA81B981CE0F95
S11312A0D11D0FB6F894DEBF0FBECDBFED0108957A
S10712B0F894FFCFDC
S11312B47365676D656E742025642C207370656591
S11312C4642025750D0A004D6F746F722073746168
S11312D47274656420617420737065656420257577
S11312E40D0A000D583D25752053706565643D2530
S11312F475204F444F3D25336420546F70583D2569
S11313047520202020202020000D202020202020B3
S113131420202020202020202020202020202020C5
S113132420202020202020202020202020202020B5
S113133420202020202020202020202020202020A5
S11313442020202020202020202020202020202095
S11313542020202020202020202020202020202085
S113136420202020206C6170203D202575000D2054
S11313742020202020202020202020202020202065
S11313842020202020202020202020202020202055
S11313942020202020202020202020202020202045
S11313A42020202020202020202020202020202035
S11313B42020202020202020202020202020202025
S11313C42020202020202020202020202020202015
S11313D42020202020205365676D656E746572207B
S10B13E462796767657421005A
S9030000FC
