S014000048757274696765725F62696C2E7372656330
S11300000C94A7000C94DD020C94C4000C94C4005E
S11300100C94C4000C94C4000C9422050C94C400E9
S11300200C94C4000C9470050C94C4000C944D06FC
S11300300C94C4000C94C4000C94C4000C94C4002C
S11300400C94C4000C94C4000C94C4000C94C4001C
S11300500C94C40000407A10F35A00A0724E1809A0
S11300600010A5D4E80000E87648170000E40B541B
S1130070020000CA9A3B000000E1F50500008096EA
S11300809800000040420F000000A086010000001C
S1130090102700000000E8030000000064000000D6
S11300A000000A00000000000100000000002C769F
S11300B0D888DC674F0823DFC1DFAE59E1B1B796BA
S11300C0E5E3E453C63AE651997696E8E6C2842617
S11300D0EB898C9B62ED407C6FFCEFBC9C9F40F2F3
S11300E0BAA56FA5F490055A2AF75C936B6CF9676F
S11300F06DC11BFCE0E40D47FEF520E6B500D0ED34
S1130100902E0300943577050080841E080000209B
S11301104E0A000000C80C333333330F986E128339
S11301201141EF8D2114893BE65516CFFEE6DB180D
S1130130D1844B381BF77C1D901DA4BBE4242032D2
S113014084725E228100C9F124ECA1E53D271124CB
S11301501FBECFE5D8E0DEBFCDBF12E0A0E6B0E021
S1130160EEEAFBE102C005900D92A232B107D9F785
S113017025E0A2E2B2E001C01D92AC31B207E1F782
S11301800E942C030C94D50D0C94000017B887E83A
S113019086B9089597B1907F8F70892B87B986B1FE
S11301A0806486B93699FECF84B195B108952091C3
S11301B02202211108C084539140CD9750F081E070
S11301C08093220206C089549140439710F4109200
S11301D02202809122020895E0912C02E23308F079
S11301E07DC091E09E0F90932C02F0E020918A0252
S11301F030918B02EE0FFF1FE457FD4F31832083B4
S113020040912A0250912B02241B350B3093290272
S11302102093280281112DC03F932F9380E690E014
S11302209F938F931F9280E48F938CE194E09F932C
S11302308F930E94AB088CE194E00E947906209190
S11302402702822F90E0FC01EE0FFF1FE80FF91F39
S1130250EE0FFF1FE051FD4F15822F5F2093270201
S11302608DB79EB708960FB6F8949EBF0FBE8DBF8C
S11302702DC03F932F9385E690E09F938F931F9219
S113028080E48F938CE194E09F938F930E94AB085A
S11302908CE194E00E94790620912702822F90E05D
S11302A0FC01EE0FFF1FE80FF91FEE0FFF1FE051D7
S11302B0FD4F81E085832F5F209327028DB79EB782
S11302C008960FB6F8949EBF0FBE8DBF80918A0228
S11302D090918B0290932B0280932A020895CF93DE
S11302E0DF931092260220E030E068C0809126025D
S11302F090E0FC01EE0FFF1FE80FF91FEE0FFF1F48
S1130300E051FD4F458141112BC0F901EE0FFF1F54
S1130310E457FD4F6081718163507109AC01440F52
S1130320551FFA01E80FF91FEE0FFF1FE051FD4FB3
S113033071836083D9011196AA0FBB1FA457BD4FC7
S11303406D917C916550710973836283FA01E80FA2
S1130350F91FEE0FFF1FE051FD4F84E6848327C091
S1130360F901EE0FFF1FE457FD4F408151814550C5
S11303705109FC01EE0FFF1FDF01A80FB91FAA0FDF
S1130380BB1FA051BD4F11965C934E93E90121967A
S1130390CC0FDD1FC457DD4F4881598143505109AB
S11303A013965C934E931297FD018CE384838091A2
S11303B026028F5F809326022F5F3F4F80912C028D
S11303C090E00197281739070CF490CF809126020A
S11303D0882361F190E00197FC01EE0FFF1FE80F05
S11303E0F91FEE0FFF1FE051FD4F8281938180932F
S11303F02302909324029F938F938AE690E09F9325
S11304008F931F9280E48F938CE194E09F938F935A
S11304100E94AB088CE194E00E9479068DB79EB7E8
S113042008960FB6F8949EBF0FBE8DBFDF91CF9193
S1130430089560912302709124020E94680820E0CC
S113044030E01EC0F901EE0FFF1FE20FF31FEE0FA5
S1130450FF1FE051FD4F408151818417950770F0D3
S1130460F901EE0FFF1FE20FF31FEE0FFF1FE05124
S1130470FD4F428153818417950758F02F5F3F4FFA
S11304804091260250E024173507E4F28FEF9FEFE6
S11304900895822F932F0895CF93DF9380918A023A
S11304A090918B020E941902EC019923DCF1FC016A
S11304B0EE0FFF1FE80FF91FEE0FFF1FE051FD4F76
S11304C084810E9407058091250290E0C817D9070E
S11304D049F1C0932502FE01EE0FFF1FEC0FFD1F33
S11304E0EE0FFF1FE051FD4F84811F928F93DF9326
S11304F0CF9389E890E09F938F931F9280E48F932A
S11305008CE194E09F938F930E94AB088CE194E07C
S11305100E9479068DB79EB70A960FB6F8949EBFCF
S11305200FBE8DBFDF91CF9108951092260220E077
S113053030E02BC040912602842F90E0FC01EE0FA6
S1130540FF1FE80FF91FEE0FFF1FE051FD4F55810C
S1130550511107C0DF01FD018481865F14968C93DD
S11305600FC0FC01EE0FFF1FDF01A80FB91FAA0F78
S1130570BB1FA051BD4FFD0184818D5F14968C93E8
S11305804F5F409326022F5F3F4F80912C0290E0F3
S113059001972817390774F2089581B38B7F81BBC3
S11305A082B38B7F82BB85B7826085BF85B78E7F20
S11305B085BF8BB780648BBF08951F920F920FB6CF
S11305C00F9211242F933F934F935F938F939F9395
S11305D080918A0290918B0220912D0230912E02FB
S11305E0AC01421B530B4333510508F120912F02F8
S11305F0309130022233310558F420912F0230918A
S113060030022F5F3F4F3093300220932F020BC0F4
S113061020912F02309130022233310520F01092C4
S1130620300210922F0290932E0280932D029F91FC
S11306308F915F914F913F912F910F900FBE0F902B
S11306401F90189581B38F7B81BB82B3806482BB7A
S113065014BA8FEF85BB0895CF93DF93CDB7DEB780
S11306606E970FB6F894DEBF0FBECDBF0E94220373
S11306700E94090587E690E00E946B060E94F90437
S11306800E94C6000E9465060E94CD027894C12C87
S1130690D12C712C66246394812C912C512CA12C87
S11306A010E000E0B12C0E9486069923DCF10023BF
S11306B019F0013021F036C08337A1F531C030ED97
S11306C0380F3A3060F4BB0C9B2D990F990FB90E7B
S11306D08B0D0F2EF0EDBF2EF02DB80E23C08D30F4
S11306E011F08A30F9F48B2D0E9407051F92BF92F6
S11306F080EA90E09F938F9381E08F931F928CE127
S113070094E09F938F930E94AB088CE194E00E9445
S113071079060FB6F894DEBF0FBECDBF00E002C06D
S113072001E0B12C80917102882321F083E090E0F4
S11307300E948905812F90E020912F023091300290
S11307408217930759F180912F0290913002182F4C
S1130750E0908A02F0908B0297012C193D09809158
S11307602F02909130023F932F939F938F938CEBA2
S113077090E09F938F9381E08F931F928CE194E09C
S11307809F938F930E94AB088CE194E00E947906BA
S11307900FB6F894DEBF0FBECDBF670180912F0264
S11307A0909130028130910509F450C040F08230BC
S11307B0910509F4E4C0039709F4EEC006C18091E1
S11307C04C02882309F46FCF10924C02539453E1E6
S11307D0551508F068CF0F2EF2E7EF2EF2E0FF2E4A
S11307E0F02DF70164857585868597850E941C0622
S11307F0582E492EF70160857185828593850E9464
S11308001C064F925F929F938F939F928F92F70152
S1130810818D8F93808D8F931F92BF928EE291E092
S11308209F938F9381E08F931F928CE194E09F9329
S11308308F930E94AB088CE194E00E9479060FB676
S1130840F894DEBF0FBECDBF512C2DCF80914C024A
S1130850882309F428CF10924C0282E090E00E9491
S1130860CA00472D50E0FA01EE0FFF1F21E030E0EF
S11308702C0F3D1FE20FF31F918380834F5F5F4F67
S11308809A01A9E8B8E80E947C0896958795969500
S1130890879596958795742E3FE0839F7018112451
S11308A080E020E030E00FC0E82FF0E0EE0FFF1F03
S11308B041E050E04C0F5D1FE40FF51F4081518172
S11308C0240F351F8F5F8F3078F3A9E8B8E80E94B2
S11308D07C087C01F694E794F694E794F694E79404
S11308E0C7010E94D700482E681619F00E94EC0038
S11308F0642C8E149F0408F44701539453E1551556
S113090008F0D1CE0F2EF2E74F2EF2E05F2EF02D3D
S1130910F20164857585868597850E941C06382EAC
S1130920292EF20160857185828593850E941C06BB
S11309302F923F929F938F939F928F92F201818D7A
S11309408F93808D8F931F92BF92FF92EF928CE5CD
S113095091E09F938F9381E08F931F928CE194E0B9
S11309609F938F930E94AB088CE194E00E947906D8
S11309700FB6F894DEBF0FBECDBF512C94CE80E0ED
S11309800E94EC0080912F02909130020196909386
S1130990300280932F0287CE0E946F0182E9EFE834
S11309A0F1E0ACE1B4E001900D928A95E1F78CE1BD
S11309B094E00E94790680912F0290913002019672
S11309C09093300280932F026ECE0E944C028A2DA7
S11309D090E020912F02309130028217930709F49E
S11309E062CE0E94950280912F0290913002A82E2F
S11309F05ACE81B3806881BB85B5886485BD85B5D1
S1130A00806285BD85B5846085BD13BC089583BDB2
S1130A10089588B7806288BF89B7877E89BF89B700
S1130A20846089BF89B7806289BF1FBC83E88EBD9B
S1130A30EDE4F2E01182108214A210928B02109263
S1130A408A0208951F920F920FB60F9211242F93CA
S1130A503F934F935F936F937F938F939F93AF9342
S1130A60BF93EF93FF93EDE4F2E082A193A101968B
S1130A708770992793A382A34081518160E070E03D
S1130A80BA015527442726B537B5420F531F611DB8
S1130A90711D880F991F880F991FDC01A35BBD4F3F
S1130AA012964D935D936D937C93159781E084A387
S1130AB0E2E7F2E0808D918D0196918F808FFF9116
S1130AC0EF91BF91AF919F918F917F916F915F91C2
S1130AD04F913F912F910F900FBE0F901F9018953B
S1130AE01F920F920FB60F9211248F939F93EF933F
S1130AF0FF93EDE4F2E080819181019691838083FC
S1130B00FF91EF919F918F910F900FBE0F901F90C7
S1130B1018954F925F926F927F928F929F92AF92AD
S1130B20BF92CF92DF92EF92FF92CF93DF93BC01FB
S1130B30892B11F461E070E0EDE4F2E014A222A14B
S1130B4033A1F901EE0FFF1FEE0FFF1FE35BFD4F13
S1130B50C280D380E480F580F901E61BF70BE770CF
S1130B60FF27EE0FFF1FEE0FFF1FE35BFD4F828198
S1130B709381A481B581C81AD90AEA0AFB0AC2E79B
S1130B80D2E0C882D982EA82FB8288849984AA84CA
S1130B90BB848C829D82AE82BF82072E000C880BA0
S1130BA0990B0E946F0720E034EC46E857E40E945A
S1130BB0FB072B013C01C701B6010E946F076B01C3
S1130BC07C019B01AC01C301B2010E94FB062B0115
S1130BD03C01688779878A879B87A50194010E94D5
S1130BE08E0620E030E543EC57E40E94FB07A701A2
S1130BF096010E94FB066C877D878E879F87488AB3
S1130C00598A6A8A7B8A20E030E040E251E40E94FB
S1130C10FB076C8B7D8B8E8B9F8BDF91CF91FF902D
S1130C20EF90DF90CF90BF90AF909F908F907F9088
S1130C306F905F904F9008950F931F9320914902F6
S1130C4030914A022F5F3F4F2170332730934A027D
S1130C50209349028901000F111F020F131F000F77
S1130C60111F000F111F0F5C1D4F22E030E046E002
S1130C7050E00E948B088091490290914A029C01A5
S1130C80220F331F820F931F880F991F880F991FFC
S1130C908F5C9D4F1F910F9108951F920F920FB675
S1130CA00F9211248F9380914B028F5F80934B029C
S1130CB0853028F010924B0281E080934C028F9192
S1130CC00F900FBE0F901F90189583E083BF89B7D4
S1130CD0816089BF089521B3226021BB90BD89B989
S1130CE088E18AB986E880BD08955D9BFECF8CB902
S1130CF00895CF93DF93EC0103C021960E947506FB
S1130D0088818111FACFDF91CF9108955F9B03C051
S1130D108CB190E008958FEF9FEF08955058BB2752
S1130D20AA270E94A6060C94C1070E94B30738F0B4
S1130D300E94BA0720F039F49F3F19F426F40C946A
S1130D40B0070EF4E095E7FB0C94AA07E92F0E9484
S1130D50D20758F3BA17620773078407950720F080
S1130D6079F4A6F50C94F4070EF4E0950B2EBA2F43
S1130D70A02D0B01B90190010C01CA01A00111249D
S1130D80FF27591B99F0593F50F4503E68F11A1649
S1130D90F040A22F232F342F4427585FF3CF4695DA
S1130DA037952795A795F0405395C9F77EF41F16FC
S1130DB0BA0B620B730B840BBAF09150A1F0FF0FC6
S1130DC0BB1F661F771F881FC2F70EC0BA0F621FB2
S1130DD0731F841F48F4879577956795B795F795A2
S1130DE09E3F08F0B0CF9395880F08F09927EE0F37
S1130DF09795879508950E940F070C94C1070E9448
S1130E00BA0758F00E94B30740F029F45F3F29F075
S1130E100C94AA0751110C94F5070C94B0070E9486
S1130E20D20768F39923B1F3552391F3951B550B1E
S1130E30BB27AA2762177307840738F09F5F5F4FA9
S1130E40220F331F441FAA1FA9F335D00E2E3AF0E8
S1130E50E0E832D091505040E695001CCAF72BD000
S1130E60FE2F29D0660F771F881FBB1F2617370751
S1130E704807AB07B0E809F0BB0B802DBF01FF2783
S1130E8093585F4F3AF09E3F510578F00C94AA07AF
S1130E900C94F5075F3FE4F3983ED4F38695779579
S1130EA06795B795F7959F5FC9F7880F911D96953C
S1130EB0879597F90895E1E0660F771F881FBB1F98
S1130EC0621773078407BA0720F0621B730B840B45
S1130ED0BA0BEE1F88F7E0950895E89409C097FBD4
S1130EE03EF490958095709561957F4F8F4F9F4FFD
S1130EF09923A9F0F92F96E9BB279395F695879541
S1130F0077956795B795F111F8CFFAF4BB0F11F403
S1130F1060FF1BC06F5F7F4F8F4F9F4F16C08823AA
S1130F2011F096E911C0772321F09EE8872F762FE0
S1130F3005C0662371F096E8862F70E060E02AF021
S1130F409A95660F771F881FDAF7880F969587950D
S1130F5097F9089597F99F6780E870E060E0089535
S1130F609FEF80EC089500240A94161617061806BD
S1130F700906089500240A94121613061406050699
S1130F800895092E0394000C11F4882352F0BB0F2A
S1130F9040F4BF2B11F460FF04C06F5F7F4F8F4F8D
S1130FA09F4F089557FD9058440F551F59F05F3FC8
S1130FB071F04795880F97FB991F61F09F3F79F077
S1130FC087950895121613061406551FF2CF4695F9
S1130FD0F1DF08C0161617061806991FF1CF86957B
S1130FE07105610508940895E894BB27662777275F
S1130FF0CB0197F908950E940E080C94C1070E9432
S1131000B30738F00E94BA0720F0952311F00C942E
S1131010AA070C94B00711240C94F5070E94D20778
S113102070F3959FC1F3950F50E0551F629FF00137
S1131030729FBB27F00DB11D639FAA27F00DB11D50
S1131040AA1F649F6627B00DA11D661F829F2227D9
S1131050B00DA11D621F739FB00DA11D621F839F60
S1131060A00D611D221F749F3327A00D611D231F36
S1131070849F600D211D822F762F6A2F11249F5784
S113108050409AF0F1F088234AF0EE0FFF1FBB1F87
S1131090661F771F881F91505040A9F79E3F510546
S11310A080F00C94AA070C94F5075F3FE4F3983E94
S11310B0D4F3869577956795B795F795E7959F5FF0
S11310C0C1F7FE2B880F911D9695879597F9089582
S11310D0AA1BBB1B51E107C0AA1FBB1FA617B7075A
S11310E010F0A61BB70B881F991F5A95A9F7809576
S11310F09095BC01CD010895A29FB001B39FC0019A
S1131100A39F700D811D1124911DB29F700D811D2F
S11311101124911D0895EF920F931F93CF93DF93A2
S1131120E80147FD02C034E001C034E1042E000CA4
S1131130550B57FF03C0519541955109E32E022FDA
S1131140242FAE010E94BC0ACE01DF91CF911F91E2
S11311500F91EF900895AEE0B0E0E1EBF8E00C946D
S1131160AC0D0D891E898F89988D26E02C831A83F6
S1131170098397FF02C080E090E801979E838D83E6
S1131180AE01455E5F4F698D7A8DCE0101960E9456
S1131190DB084D815E8157FD0AC02F8138854217D7
S11311A053070CF49A01F801E20FF31F10822E96F4
S11311B0E4E00C94C80DABE0B0E0E1EEF8E00C9490
S11311C09E0D6C017B018A01FC01178216828381CA
S11311D081FFCCC1CE0101963C01F6019381F70158
S11311E093FD859193FF81917F01882309F4BAC10E
S11311F0853239F493FD859193FF81917F01853286
S113120029F4B60190E00E94040DE7CF912C212C23
S1131210312CFFE1F315D8F08B3279F038F48032B9
S113122079F08332A1F4232D20611DC08D3261F049
S1131230803369F4232D216016C0832D8260382EFB
S1131240E32DE4603E2E2AC0F32DF8601DC037FC68
S11312502DC020ED280F2A3040F08E32B9F436FC30
S113126081C1232D2064322E19C036FE06C08AE0C7
S1131270989E200D1124922E11C0EAE02E9E200D7E
S11312801124222EF32DF0623F2E08C08C3621F457
S1131290832D8068382E02C0883641F4F70193FD0F
S11312A0859193FF81917F018111B3CF982F9F7D09
S11312B09554933028F40C5F1F4F9FE399830DC01E
S11312C0833631F0833771F0833509F059C021C07A
S11312D0F801808189830E5F1F4F88248394912CA9
S11312E0530113C02801F2E04F0E511CF801A080F5
S11312F0B18036FE03C0692D70E002C06FEF7FEF4E
S1131300C5010E94F90C4C018201F32DFF773F2E99
S113131016C0280122E0420E511CF801A080B180C1
S113132036FE03C0692D70E002C06FEF7FEFC50188
S11313300E94EE0C4C01F32DF0683F2E820133FC29
S11313401BC0822D90E088169906B0F4B60180E2A5
S113135090E00E94040D2A94F4CFF50137FC8591A6
S113136037FE81915F01B60190E00E94040D2110C7
S11313702A9421E0821A91088114910471F7E8C03B
S1131380843611F0893641F5F80137FE07C06081D3
S11313907181828193810C5F1F4F08C060817181CC
S11313A0072E000C880B990B0E5F1F4FF32DFF7651
S11313B03F2E97FF09C090958095709561957F4F5A
S11313C08F4F9F4FF0683F2E2AE030E0A3010E9428
S11313D0400D882E861845C0853731F4232D2F7E85
S11313E0B22E2AE030E025C0932D997FB92E8F3696
S11313F0C1F018F4883579F0B5C0803719F0883712
S113140021F0B0C0E92FE061BE2EB4FE0DC0FB2D6B
S1131410F460BF2E09C034FE0AC0292F2660B22E04
S113142006C028E030E005C020E130E002C020E141
S113143032E0F801B7FE07C0608171818281938137
S11314400C5F1F4F06C06081718180E090E00E5FE9
S11314501F4FA3010E94400D882E8618FB2DFF7795
S11314603F2E36FE0DC0232D2E7FA22E891458F454
S113147034FE0BC032FC09C0832D8E7EA82E05C01D
S1131480B82CA32C03C0B82C01C0B92CA4FE0FC0E7
S1131490FE01E80DF11D8081803321F49A2D997E9F
S11314A0A92E09C0A2FE06C0B394B39404C08A2D29
S11314B0867809F0B394A3FC11C0A0FE06C0B21450
S11314C088F4280C922C9B180EC0B21460F4B60158
S11314D080E290E00E94040DB394F7CFB21418F4A4
S11314E02B1802C0982C212CA4FE10C0B60180E356
S11314F090E00E94040DA2FE17C0A1FC03C088E77F
S113150090E002C088E590E0B6010CC08A2D867890
S113151059F0A1FE02C08BE201C080E2A7FC8DE27B
S1131520B60190E00E94040D891438F4B60180E3FA
S113153090E00E94040D9A94F7CF8A94F301E80D89
S1131540F11D8081B60190E00E94040D8110F5CF59
S1131550222009F442CEB60180E290E00E94040DFC
S11315602A94F6CFF6018681978102C08FEF9FEF10
S11315702B96E2E10C94BA0DA9E0B0E0E2ECFAE0BB
S11315800C94A40D6A01122FB02E2BE3201720F027
S1131590FF24F394F00E02C02CE3F22E0F2D27E06B
S11315A0AE014F5F5F4F0E94160CBC014981842F2E
S11315B08970813031F0E1FC06C0E0FE06C090E2A3
S11315C005C09DE203C09BE201C090E05E2D507116
S11315D043FF3CC0911102C083E001C084E0811745
S11315E018F4212F281B01C020E051110BC0F60173
S11315F0822F30E2882319F031938150FBCFC20E41
S1131600D11C20E0992329F0D6019C93F601319650
S11316106F01C6010396E2FE0AC03EE4D6013C9384
S113162041E411964C93119712963C9306C03EE602
S1131630F601308341E641833283FC01322F40E2DC
S1131640332309F442C041933150FACF42FF44C0DE
S1131650911102C083E001C084E0811718F4212FA6
S1131660281B01C020E051110BC0F601822F30E28B
S1131670882319F031938150FBCFC20ED11C20E096
S1131680992329F0D6019C93F60131966F01C60186
S11316900396E2FE0BC039E4D6013C933EE4119676
S11316A03C93119736E412963C9307C039E6F60151
S11316B030833EE6318336E63283FC01322F40E24A
S11316C0332319F041933150FBCFFC01E20FF11D9C
S11316D010828EEF9FEFA6C021E030E0911102C08E
S11316E020E030E0161617061CF4FB01319602C008
S11316F0E1E0F0E02E0F3F1FBB2021F0EB2DF0E0E6
S1131700319602C0E0E0F0E02E0F3F1FE12FF0E041
S11317102E173F071CF4121B212F01C020E08E2D31
S1131720887159F4F601822F30E2882319F031933D
S11317308150FBCFC20ED11C20E0992329F0D601A1
S11317409C93F60131966F0151110BC0F601822F63
S113175090E3882319F091938150FBCFC20ED11CE2
S113176020E00F2D060F9A81342F307144FF03C0FF
S1131770913309F40150101624F4093018F008E0EC
S113178001C001E0AB0177FF02C040E050E0FB0183
S1131790E41BF50BA1E0B0E0AC0FBD1FEA0FFB1F8B
S11317A08EE2A82E4B01801A91080B2D10E01195A2
S11317B0019511094F3FBFEF5B0721F4D601AC92AD
S11317C011966D01641775072CF08416950614F4B0
S11317D0818101C080E3415051093196D6011196AF
S11317E07D014017510724F0D6018C936701E2CFA5
S11317F06417750739F4963320F4953319F43111CD
S113180001C081E3F6018083F701822F90E28823EF
S113181019F091938150FBCFF701E20FF11D108273
S113182080E090E02996ECE00C94C00D283008F09C
S113183027E03327DA01990F311D87FD9160009667
S11318406105710539F432602E5F3D9330E32A95CA
S1131850E1F708959F3F30F080387105610509F084
S11318603C5F3C5F3D93913008F08068911DDF93AD
S1131870CF931F930F93FF92EF92192F987F969512
S1131880E92F96959695E90FFF27E255FF4F992783
S11318903327EE24FF24A701E70105900894079459
S11318A028F4360FE71EF81E491F511D660F771FD7
S11318B0881F991F0694A1F70590079428F4E70E52
S11318C0F81E491F561FC11D770F881F991F661FD9
S11318D00694A1F70590079428F4F80E491F561FA3
S11318E0C71FD11D880F991F661F771F0694A1F784
S11318F00590079420F4490F561FC71FD81F990F4E
S1131900661F771F881F0694A9F784911095177096
S113191041F0D695C79557954795F794E7941A954E
S1131920C1F7E4E5F0E0689415901591359165915F
S1131930959105907FE27395E118F10A430B560BDC
S1131940C90BD009C0F7E10CF11E431F561FC91F74
S1131950D01D7EF4703311F48A95E6CFE8940150DB
S113196030F0080F0AF40027021708F4202F2395FB
S1131970022F7A3328F079E37D932A95E9F710C092
S11319807D932A9589F606949795679537951795CB
S11319901794E118F10A430B560BC90BD00998F0C0
S11319A023957E9173957A3308F070E37C9320132A
S11319B0B8F77E9170617D9330F0839571E37D93E8
S11319C070E32A95E1F71124EF90FF900F911F9196
S11319D0CF91DF91992787FD90950895FC0105909B
S11319E0615070400110D8F7809590958E0F9F1F1D
S11319F00895FC016150704001900110D8F7809562
S1131A0090958E0F9F1F08950F931F93CF93DF938D
S1131A10FB01238121FD03C08FEF9FEF2CC022FF28
S1131A2016C046815781248135814217530744F4F7
S1131A30A081B1819D012F5F3F4F318320838C931F
S1131A40268137812F5F3F4F3783268314C08B0154
S1131A50EC01FB010084F185E02D0995892BE1F669
S1131A60D80116968D919C911797019617969C9381
S1131A708E931697CE01DF91CF911F910F91089508
S1131A80FA01AA27283051F1203181F1E8946F93AB
S1131A906E7F6E5F7F4F8F4F9F4FAF4FB1E03ED051
S1131AA0B4E03CD0670F781F891F9A1FA11D680FEF
S1131AB0791F8A1F911DA11D6A0F711D811D911D22
S1131AC0A11D20D009F468943F912AE0269F112497
S1131AD03019305D3193DEF6CF010895462F4770FB
S1131AE0405D4193B3E00FD0C9F7F6CF462F4F7056
S1131AF0405D4A3318F0495D31FD4052419302D0B4
S1131B00A9F7EACFB4E0A695979587957795679559
S1131B10BA95C9F700976105710508959B01AC0159
S1131B200A2E06945795479537952795BA95C9F780
S1131B30620F731F841F951FA01D08952F923F925B
S1131B404F925F926F927F928F929F92AF92BF92C9
S1131B50CF92DF92EF92FF920F931F93CF93DF9375
S1131B60CDB7DEB7CA1BDB0B0FB6F894DEBF0FBED2
S1131B70CDBF09942A88398848885F846E847D841F
S1131B808C849B84AA84B984C884DF80EE80FD8021
S1131B900C811B81AA81B981CE0FD11D0FB6F89497
S1111BA0DEBF0FBECDBFED010895F894FFCF58
S1131BAE6C20257500732025750063616C63756C5C
S1131BBE6174656420747261636B206C656E677406
S1131BCE68203D2025750D0A007365676D656E747A
S1131BDE2025642C2073706565642025750D0A001C
S1131BEE4D6F746F722073746172746564206174C6
S1131BFE2073706565642025750D0A000D20202064
S1131C0E20202020202020202020202020202020C2
S1131C1E20202020202020202020202020202020B2
S1131C2E20202020202020202020202020202020A2
S1131C3E2020202020202020202020202020202092
S1131C4E2020202020202020202020202020202082
S1131C5E20202020202020206C6170203D2025751E
S1131C6E206C656E677468203D20253364000D5327
S1131C7E706565643D2575204F444F3D25336420C2
S1131C8E546F70583D257520486173743D2573203B
S1131C9E6163633D25732020202020000D583D25CF
S1131CAE752053706565643D2575204F444F3D2561
S1131CBE336420546F70583D257520486173743D0C
S1131CCE2573206163633D25732020202020000DA1
S1131CDE20202020202020202020202020202020F2
S1131CEE20202020202020202020202020202020E2
S1131CFE20202020202020202020202020202020D2
S1131D0E20202020202020202020202020202020C1
S1131D1E20202020202020202020202020202020B1
S1131D2E20202020202020202020202020202020A1
S1131D3E2020202020202020202020202020202091
S1131D4E202020202020202020202020202020534E
S1131D5E65676D656E746572206279676765742157
S1051D6E00006F
S9030000FC
