S014000048757274696765725F62696C2E7372656330
S11300000C94A7000C9425030C94C4000C94C40015
S11300100C94C4000C94C4000C943D050C94C400CE
S11300200C94C4000C948B050C94C4000C946E06C0
S11300300C94C4000C94C4000C94C4000C94C4002C
S11300400C94C4000C94C4000C94C4000C94C4001C
S11300500C94C40000407A10F35A00A0724E1809A0
S11300600010A5D4E80000E87648170000E40B541B
S1130070020000CA9A3B000000E1F50500008096EA
S11300809800000040420F000000A086010000001C
S1130090102700000000E8030000000064000000D6
S11300A000000A00000000000100000000002C769F
S11300B0D888DC674F0823DFC1DFAE59E1B1B796BA
S11300C0E5E3E453C63AE651997696E8E6C2842617
S11300D0EB898C9B62ED407C6FFCEFBC9C9F40F2F3
S11300E0BAA56FA5F490055A2AF75C936B6CF9676F
S11300F06DC11BFCE0E40D47FEF520E6B500D0ED34
S1130100902E0300943577050080841E080000209B
S11301104E0A000000C80C333333330F986E128339
S11301201141EF8D2114893BE65516CFFEE6DB180D
S1130130D1844B381BF77C1D901DA4BBE4242032D2
S113014084725E228100C9F124ECA1E53D271124CB
S11301501FBECFE5D8E0DEBFCDBF12E0A0E6B0E021
S1130160EEE3FCE102C005900D92A432B107D9F789
S113017025E0A4E2B2E001C01D92AD33B207E1F77D
S11301800E9474030C941D0E0C94000017B887E8A9
S113019086B9089597B1907F8F70892B87B986B1FE
S11301A0806486B93699FECF84B195B10895CF9312
S11301B0DF930E94CA009093280280932702209123
S11301C0240230E0F901EE0FFF1FEC5AFD4F91833A
S11301D08083C9010196C0916000D0916100BE0185
S11301E00E94BF08809324021092260210922502D6
S11301F080E013C0E82FF0E0EE0FFF1FEC5AFD4F34
S1130200208131814091250250912602240F351F0F
S113021030932602209325028F5F282F30E02C177D
S11302203D0740F38091250290912602BE010E9471
S1130230BF08CB01DF91CF910895209129022111AC
S113024008C084539140CD9750F081E080932902F7
S113025006C089549140439710F41092290280916A
S113026029020895E0913302E23308F07DC091E061
S11302709E0F90933302F0E02091AB023091AC02D8
S1130280EE0FFF1FE355FD4F318320834091310270
S113029050913202241B350B3093300220932F02ED
S11302A081112DC03F932F9382E690E09F938F930B
S11302B01F9280E48F938DE394E09F938F930E9429
S11302C0F3088DE394E00E949A0620912E02822F77
S11302D090E0FC01EE0FFF1FE80FF91FEE0FFF1F68
S11302E0EF5EFC4F15822F5F20932E028DB79EB7D1
S11302F008960FB6F8949EBF0FBE8DBF2DC03F93D6
S11303002F9387E690E09F938F931F9280E48F93BF
S11303108DE394E09F938F930E94F3088DE394E020
S11303200E949A0620912E02822F90E0FC01EE0F8B
S1130330FF1FE80FF91FEE0FFF1FEF5EFC4F81E078
S113034085832F5F20932E028DB79EB708960FB634
S1130350F8949EBF0FBE8DBF8091AB029091AC020A
S113036090933202809331020895CF93DF931092D9
S11303702D0220E030E064C080912D0290E0FC0169
S1130380EE0FFF1FE80FF91FEE0FFF1FEF5EFC4F8C
S11303904581411129C0F901EE0FFF1FE355FD4FBF
S11303A060817181AC01440F551FFA01E80FF91FF8
S11303B0EE0FFF1FEF5EFC4F71836083D90111962E
S11303C0AA0FBB1FA355BD4F6D917C916650710957
S11303D073836283FA01E80FF91FEE0FFF1FEF5ECC
S11303E0FC4F8FEF848325C0F901EE0FFF1FE35507
S11303F0FD4F4081518146505109FC01EE0FFF1F12
S1130400DF01A80FB91FAA0FBB1FAF5EBC4F119627
S11304105C934E93E9012196CC0FDD1FC355DD4F4C
S11304204881598113965C934E931297FD018CE396
S1130430848380912D028F5F80932D022F5F3F4F25
S11304408091330290E00197281739070CF494CF78
S113045080912D02882361F190E00197FC01EE0F59
S1130460FF1FE80FF91FEE0FFF1FEF5EFC4F8281A5
S1130470938180932A0290932B029F938F938CE60F
S113048090E09F938F931F9280E48F938DE394E089
S11304909F938F930E94F3088DE394E00E949A0641
S11304A08DB79EB708960FB6F8949EBF0FBE8DBF4A
S11304B0DF91CF91089560912A0270912B020E94DE
S11304C0BF082091AD023091AE02820F931F20E04D
S11304D030E01EC0F901EE0FFF1FE20FF31FEE0F15
S11304E0FF1FEF5EFC4F408151818417950770F028
S11304F0F901EE0FFF1FE20FF31FEE0FFF1FEF5E78
S1130500FC4F428153818417950758F02F5F3F4F6A
S113051040912D0250E024173507E4F28FEF9FEF4E
S11305200895822F932F0895CF93DF938091AB0288
S11305309091AC020E945B02EC019923DCF1FC0176
S1130540EE0FFF1FE80FF91FEE0FFF1FEF5EFC4FCA
S113055084810E94220580912C0290E0C817D9075B
S113056049F1C0932C02FE01EE0FFF1FEC0FFD1F9B
S1130570EE0FFF1FEF5EFC4F84811F928F93DF937A
S1130580CF938BE890E09F938F931F9280E48F9397
S11305908DE394E09F938F930E94F3088DE394E09E
S11305A00E949A068DB79EB70A960FB6F8949EBF1E
S11305B00FBE8DBFDF91CF91089510922D0220E0E0
S11305C030E02BC040912D02842F90E0FC01EE0F0F
S11305D0FF1FE80FF91FEE0FFF1FEF5EFC4F558161
S11305E0511107C0DF01FD018481865F14968C934D
S11305F00FC0FC01EE0FFF1FDF01A80FB91FAA0FE8
S1130600BB1FAF5EBC4FFD0184818D5F14968C933C
S11306104F5F40932D022F5F3F4F8091330290E054
S113062001972817390774F2089581B38B7F81BB32
S113063082B38B7F82BB85B7826085BF85B78E7F8F
S113064085BF8BB780648BBF08951F920F920FB63E
S11306500F9211242F933F934F935F938F939F9304
S11306608091AB029091AC0220913402309135021A
S1130670AC01421B530B4333510508F12091360260
S1130680309137022233310558F4209136023091EB
S113069037022F5F3F4F30933702209336020BC04F
S11306A020913602309137022233310520F0109226
S11306B037021092360290933502809334029F9150
S11306C08F915F914F913F912F910F900FBE0F909B
S11306D01F90189581B38F7B81BB82B3806482BBEA
S11306E014BA8FEF85BB08950E946A030E94240503
S11306F087E690E00E948C060E9414050E94C600C2
S11307000E9486060E9415037894E12CF12C77242C
S11307107394A12CB12CC12CD12C0F2EF7E08F2E69
S1130720F02DC0E0D0E0912C0E94A7069923F4F1AB
S1130730DD2319F0D13021F039C08337B9F534C045
S113074030ED380F3A3060F4990C992D990F990FC8
S1130750990E890D0F2EF0ED9F2EF02D980E26C0C8
S11307608D3011F08A3011F5892D0E9422051F92D7
S11307709F9282EA90E09F938F9381E08F931F92E0
S11307808DE394E09F938F930E94F3088DE394E0AC
S11307900E949A068DB79EB708960FB6F8949EBF2E
S11307A00FBE8DBFD0E002C0D1E0912C80919602A3
S11307B0882321F083E090E00E94A4058C2F90E030
S11307C020913602309137028217930771F180919C
S11307D0360290913702C82F0091AB021091AC02FF
S11307E098012E193F0980913602909137023F9368
S11307F02F939F938F938EEB90E09F938F9381E041
S11308008F931F928DE394E09F938F930E94F3083C
S11308108DE394E00E949A06EDB7FEB73A960FB6C0
S1130820F894FEBF0FBEEDBF78018091360290911F
S113083037028230910509F4BDC030F4009761F0AD
S1130840019709F457C0DCC08330910509F4BFC097
S1130850079708F469CFD4C080915302882309F420
S113086063CF1092530282E00E94D700FFEFCF1AA9
S1130870DF0A88EEC81683E0D80608F455CF07E9E6
S113088012E0F80164857585868597850E943D068A
S1130890D82EC92EF80160857185828593850E94C2
S11308A03D06CF92DF929F938F93BF92AF92F80150
S11308B085898F9384898F931F929F9280E391E01F
S11308C09F938F9381E08F931F928DE394E09F9386
S11308D08F930E94F3088DE394E00E949A068DB7EB
S11308E09EB740960FB6F8949EBF0FBE8DBFC12C25
S11308F0D12C1ACF80915302882309F415CF10927A
S1130900530282E00E94D7008C010E941D01682ED0
S1130910781619F00E943201762CA016B10608F45C
S113092058019FEFC91AD90AE4E1CE16D10408F49C
S1130930FBCE0F2EF7E9CF2EF2E0DF2EF02DF601DD
S113094064857585868597850E943D06682E592E97
S1130950F60160857185828593850E943D065F92CC
S11309606F929F938F93BF92AF92F60185898F9375
S113097084898F931F929F921F930F938EE591E02A
S11309809F938F9381E08F931F928DE394E09F93C5
S11309908F930E94F3088DE394E00E949A068DB72A
S11309A09EB742960FB6F8949EBF0FBE8DBFC12C62
S11309B0D12CBACE81E00E9432018091360290910E
S11309C0370201969093370280933602ADCE0E948F
S11309D0B50182E9E1E9F1E0ADE3B4E001900D9203
S11309E08A95E1F78DE394E00E949A06809136029D
S11309F0909137020196909337028093360294CEF9
S1130A000E949402882D90E02091360230913702A2
S1130A108217930709F488CE0E94DD028091360282
S1130A2090913702882E80CE81B3806881BB85B5D2
S1130A30886485BD85B5806285BD85B5846085BDC6
S1130A4013BC089583BD089588B7806288BF89B7B1
S1130A50877E89BF89B7846089BF89B7806289BF6F
S1130A601FBC83E88EBDE2E7F2E01182108214A27B
S1130A701092AC021092AB0208951F920F920FB61F
S1130A800F9211242F933F934F935F936F937F9310
S1130A908F939F93AF93BF93EF93FF93E2E7F2E0BB
S1130AA082A193A101968770992793A382A3408181
S1130AB0518160E070E0BA015527442726B537B567
S1130AC0420F531F611D711D880F991F880F991FB5
S1130AD0DC01AE58BD4F12964D935D936D937C939C
S1130AE0159781E084A3E7E9F2E08489958901966A
S1130AF0958B848BFF91EF91BF91AF919F918F91D3
S1130B007F916F915F914F913F912F910F900FBE05
S1130B100F901F9018951F920F920FB60F921124E9
S1130B208F939F93EF93FF93E2E7F2E080819181AB
S1130B30019691838083FF91EF919F918F910F9004
S1130B400FBE0F901F9018954F925F926F927F92F5
S1130B508F929F92AF92BF92CF92DF92EF92FF92C9
S1130B60CF93DF93BC01892B11F461E070E0E2E7DD
S1130B70F2E014A222A133A1F901EE0FFF1FEE0F40
S1130B80FF1FEE58FD4FC280D380E480F580F90149
S1130B90E61BF70BE770FF27EE0FFF1FEE0FFF1F9B
S1130BA0EE58FD4F82819381A481B581C81AD90A78
S1130BB0EA0AFB0AC7E9D2E0C882D982EA82FB8248
S1130BC088849984AA84BB848C829D82AE82BF82ED
S1130BD0072E000C880B990B0E94C60720E034EC0A
S1130BE046E857E40E9452082B013C01C701B601B4
S1130BF00E94C6076B017C019B01AC01C301B201D9
S1130C000E941C072B013C01688779878A879B8790
S1130C10A50194010E94AF0620E030E543EC57E4BF
S1130C200E945208A70196010E941C076B017C01D7
S1130C306C877D878E879F87C301B2010E948E07D0
S1130C40798B688B20E030E040E251E4C701B601C3
S1130C500E9452080E948E077B8B6A8BDF91CF9192
S1130C60FF90EF90DF90CF90BF90AF909F908F90C8
S1130C707F906F905F904F9008950F931F932091F2
S1130C805002309151022F5F3F4F21703327309330
S1130C905102209350028901000F111F020F131FEC
S1130CA0000F111F000F111F085C1D4F22E030E0E0
S1130CB046E050E00E94D308809150029091510286
S1130CC09C01220F331F820F931F880F991F880FD7
S1130CD0991F885C9D4F1F910F9108951F920F9249
S1130CE00FB60F9211248F93809152028F5F8093DD
S1130CF05202853028F01092520281E08093530210
S1130D008F910F900FBE0F901F90189583E083BFB3
S1130D1089B7816089BF089521B3226021BB90BD4A
S1130D2089B988E18AB986E880BD08955D9BFECFC4
S1130D308CB90895CF93DF93EC0103C021960E94F0
S1130D40960688818111FACFDF91CF9108955F9B38
S1130D5003C08CB190E008958FEF9FEF0895505831
S1130D60BB27AA270E94C7060C9418080E940A08E9
S1130D7038F00E94110820F039F49F3F19F426F44A
S1130D800C9407080EF4E095E7FB0C940108E92F96
S1130D900E94290858F3BA17620773078407950756
S1130DA020F079F4A6F50C944B080EF4E0950B2E84
S1130DB0BA2FA02D0B01B90190010C01CA01A001A9
S1130DC01124FF27591B99F0593F50F4503E68F104
S1130DD01A16F040A22F232F342F4427585FF3CF45
S1130DE0469537952795A795F0405395C9F77EF416
S1130DF01F16BA0B620B730B840BBAF09150A1F05F
S1130E00FF0FBB1F661F771F881FC2F70EC0BA0FE4
S1130E10621F731F841F48F4879577956795B7956C
S1130E20F7959E3F08F0B0CF9395880F08F0992767
S1130E30EE0F9795879508950E9430070C94180833
S1130E400E94110858F00E940A0840F029F45F3FFC
S1130E5029F00C94010851110C944C080C940708C7
S1130E600E94290868F39923B1F3552391F3951B44
S1130E70550BBB27AA2762177307840738F09F5FB7
S1130E805F4F220F331F441FAA1FA9F335D00E2E24
S1130E903AF0E0E832D091505040E695001CCAF791
S1130EA02BD0FE2F29D0660F771F881FBB1F261754
S1130EB037074807AB07B0E809F0BB0B802DBF012B
S1130EC0FF2793585F4F3AF09E3F510578F00C94FA
S1130ED001080C944C085F3FE4F3983ED4F38695E4
S1130EE077956795B795F7959F5FC9F7880F911D1B
S1130EF09695879597F90895E1E0660F771F881F07
S1130F00BB1F621773078407BA0720F0621B730BB9
S1130F10840BBA0BEE1F88F7E09508950E9495079D
S1130F206894B1110C944C0808950E94310888F01B
S1130F309F5798F0B92F9927B751B0F0E1F0660F99
S1130F40771F881F991F1AF0BA95C9F714C0B130DA
S1130F5091F00E944B08B1E008950C944B08672F60
S1130F60782F8827B85F39F0B93FCCF38695779509
S1130F706795B395D9F73EF49095809570956195F2
S1130F807F4F8F4F9F4F0895E89409C097FB3EF41D
S1130F9090958095709561957F4F8F4F9F4F9923C2
S1130FA0A9F0F92F96E9BB279395F6958795779540
S1130FB06795B795F111F8CFFAF4BB0F11F460FF00
S1130FC01BC06F5F7F4F8F4F9F4F16C0882311F058
S1130FD096E911C0772321F09EE8872F762F05C06C
S1130FE0662371F096E8862F70E060E02AF09A9507
S1130FF0660F771F881FDAF7880F9695879597F9FC
S1131000089597F99F6780E870E060E008959FEF86
S113101080EC089500240A9416161706180609068B
S1131020089500240A94121613061406050608955A
S1131030092E0394000C11F4882352F0BB0F40F4E2
S1131040BF2B11F460FF04C06F5F7F4F8F4F9F4F22
S1131050089557FD9058440F551F59F05F3F71F0A4
S11310604795880F97FB991F61F09F3F79F087950B
S11310700895121613061406551FF2CF4695F1DF94
S113108008C0161617061806991FF1CF8695710524
S1131090610508940895E894BB2766277727CB0158
S11310A097F908950E9465080C9418080E940A088C
S11310B038F00E94110820F0952311F00C940108D7
S11310C00C94070811240C944C080E94290870F30E
S11310D0959FC1F3950F50E0551F629FF001729FD9
S11310E0BB27F00DB11D639FAA27F00DB11DAA1FE8
S11310F0649F6627B00DA11D661F829F2227B00D35
S1131100A11D621F739FB00DA11D621F839FA00DBF
S1131110611D221F749F3327A00D611D231F849F0F
S1131120600D211D822F762F6A2F11249F57504066
S11311309AF0F1F088234AF0EE0FFF1FBB1F661FE1
S1131140771F881F91505040A9F79E3F510580F0AA
S11311500C9401080C944C085F3FE4F3983ED4F3DC
S1131160869577956795B795F795E7959F5FC1F74E
S1131170FE2B880F911D9695879597F90895AA1BC4
S1131180BB1B51E107C0AA1FBB1FA617B70710F06E
S1131190A61BB70B881F991F5A95A9F780959095A0
S11311A0BC01CD010895EF920F931F93CF93DF936A
S11311B0E80147FD02C034E001C034E1042E000C14
S11311C0550B57FF03C0519541955109E32E022F4A
S11311D0242FAE010E94040BCE01DF91CF911F9109
S11311E00F91EF900895AEE0B0E0E9EFF8E00C94D1
S11311F0F40D0D891E898F89988D26E02C831A831E
S1131200098397FF02C080E090E801979E838D8355
S1131210AE01455E5F4F698D7A8DCE0101960E94C5
S113122023094D815E8157FD0AC02F8138854217FD
S113123053070CF49A01F801E20FF31F10822E9663
S1131240E4E00C94100EABE0B0E0E9E2F9E00C94B9
S1131250E60D6C017B018A01FC01178216828381F1
S113126081FFCCC1CE0101963C01F6019381F701C7
S113127093FD859193FF81917F01882309F4BAC17D
S1131280853239F493FD859193FF81917F018532F5
S113129029F4B60190E00E944C0DE7CF912C212C4B
S11312A0312CFFE1F315D8F08B3279F038F4803229
S11312B079F08332A1F4232D20611DC08D3261F0B9
S11312C0803369F4232D216016C0832D8260382E6B
S11312D0E32DE4603E2E2AC0F32DF8601DC037FCD8
S11312E02DC020ED280F2A3040F08E32B9F436FCA0
S11312F081C1232D2064322E19C036FE06C08AE037
S1131300989E200D1124922E11C0EAE02E9E200DED
S11313101124222EF32DF0623F2E08C08C3621F4C6
S1131320832D8068382E02C0883641F4F70193FD7E
S1131330859193FF81917F018111B3CF982F9F7D78
S11313409554933028F40C5F1F4F9FE399830DC08D
S1131350833631F0833771F0833509F059C021C0E9
S1131360F801808189830E5F1F4F88248394912C18
S1131370530113C02801F2E04F0E511CF801A08064
S1131380B18036FE03C0692D70E002C06FEF7FEFBD
S1131390C5010E94410D4C018201F32DFF773F2EC0
S11313A016C0280122E0420E511CF801A080B18031
S11313B036FE03C0692D70E002C06FEF7FEFC501F8
S11313C00E94360D4C01F32DF0683F2E820133FC50
S11313D01BC0822D90E088169906B0F4B60180E215
S11313E090E00E944C0D2A94F4CFF50137FC8591CE
S11313F037FE81915F01B60190E00E944C0D2110EF
S11314002A9421E0821A91088114910471F7E8C0AA
S1131410843611F0893641F5F80137FE07C0608142
S11314207181828193810C5F1F4F08C0608171813B
S1131430072E000C880B990B0E5F1F4FF32DFF76C0
S11314403F2E97FF09C090958095709561957F4FC9
S11314508F4F9F4FF0683F2E2AE030E0A3010E9497
S1131460880D882E861845C0853731F4232D2F7EAC
S1131470B22E2AE030E025C0932D997FB92E8F3605
S1131480C1F018F4883579F0B5C0803719F0883781
S113149021F0B0C0E92FE061BE2EB4FE0DC0FB2DDB
S11314A0F460BF2E09C034FE0AC0292F2660B22E74
S11314B006C028E030E005C020E130E002C020E1B1
S11314C032E0F801B7FE07C06081718182819381A7
S11314D00C5F1F4F06C06081718180E090E00E5F59
S11314E01F4FA3010E94880D882E8618FB2DFF77BD
S11314F03F2E36FE0DC0232D2E7FA22E891458F4C4
S113150034FE0BC032FC09C0832D8E7EA82E05C08C
S1131510B82CA32C03C0B82C01C0B92CA4FE0FC056
S1131520FE01E80DF11D8081803321F49A2D997E0E
S1131530A92E09C0A2FE06C0B394B39404C08A2D98
S1131540867809F0B394A3FC11C0A0FE06C0B214BF
S113155088F4280C922C9B180EC0B21460F4B601C7
S113156080E290E00E944C0DB394F7CFB21418F4CB
S11315702B1802C0982C212CA4FE10C0B60180E3C5
S113158090E00E944C0DA2FE17C0A1FC03C088E7A6
S113159090E002C088E590E0B6010CC08A2D867800
S11315A059F0A1FE02C08BE201C080E2A7FC8DE2EB
S11315B0B60190E00E944C0D891438F4B60180E322
S11315C090E00E944C0D9A94F7CF8A94F301E80DB1
S11315D0F11D8081B60190E00E944C0D8110F5CF81
S11315E0222009F442CEB60180E290E00E944C0D24
S11315F02A94F6CFF6018681978102C08FEF9FEF80
S11316002B96E2E10C94020EA9E0B0E0EAE0FBE0E4
S11316100C94EC0D6A01122FB02E2BE3201720F04E
S1131620FF24F394F00E02C02CE3F22E0F2D27E0DA
S1131630AE014F5F5F4F0E945E0CBC014981842F55
S11316408970813031F0E1FC06C0E0FE06C090E212
S113165005C09DE203C09BE201C090E05E2D507185
S113166043FF3CC0911102C083E001C084E08117B4
S113167018F4212F281B01C020E051110BC0F601E2
S1131680822F30E2882319F031938150FBCFC20EB0
S1131690D11C20E0992329F0D6019C93F6013196C0
S11316A06F01C6010396E2FE0AC03EE4D6013C93F4
S11316B041E411964C93119712963C9306C03EE672
S11316C0F601308341E641833283FC01322F40E24C
S11316D0332309F442C041933150FACF42FF44C04E
S11316E0911102C083E001C084E0811718F4212F16
S11316F0281B01C020E051110BC0F601822F30E2FB
S1131700882319F031938150FBCFC20ED11C20E005
S1131710992329F0D6019C93F60131966F01C601F5
S11317200396E2FE0BC039E4D6013C933EE41196E5
S11317303C93119736E412963C9307C039E6F601C0
S113174030833EE6318336E63283FC01322F40E2B9
S1131750332319F041933150FBCFFC01E20FF11D0B
S113176010828EEF9FEFA6C021E030E0911102C0FD
S113177020E030E0161617061CF4FB01319602C077
S1131780E1E0F0E02E0F3F1FBB2021F0EB2DF0E055
S1131790319602C0E0E0F0E02E0F3F1FE12FF0E0B1
S11317A02E173F071CF4121B212F01C020E08E2DA1
S11317B0887159F4F601822F30E2882319F03193AD
S11317C08150FBCFC20ED11C20E0992329F0D60111
S11317D09C93F60131966F0151110BC0F601822FD3
S11317E090E3882319F091938150FBCFC20ED11C52
S11317F020E00F2D060F9A81342F307144FF03C06F
S1131800913309F40150101624F4093018F008E05B
S113181001C001E0AB0177FF02C040E050E0FB01F2
S1131820E41BF50BA1E0B0E0AC0FBD1FEA0FFB1FFA
S11318308EE2A82E4B01801A91080B2D10E0119511
S1131840019511094F3FBFEF5B0721F4D601AC921C
S113185011966D01641775072CF08416950614F41F
S1131860818101C080E3415051093196D60111961E
S11318707D014017510724F0D6018C936701E2CF14
S11318806417750739F4963320F4953319F431113C
S113189001C081E3F6018083F701822F90E288235F
S11318A019F091938150FBCFF701E20FF11D1082E3
S11318B080E090E02996ECE00C94080E283008F0C3
S11318C027E03327DA01990F311D87FD91600096D7
S11318D06105710539F432602E5F3D9330E32A953A
S11318E0E1F708959F3F30F080387105610509F0F4
S11318F03C5F3C5F3D93913008F08068911DDF931D
S1131900CF931F930F93FF92EF92192F987F969581
S1131910E92F96959695E90FFF27E255FF4F9927F2
S11319203327EE24FF24A701E701059008940794C8
S113193028F4360FE71EF81E491F511D660F771F46
S1131940881F991F0694A1F70590079428F4E70EC1
S1131950F81E491F561FC11D770F881F991F661F48
S11319600694A1F70590079428F4F80E491F561F12
S1131970C71FD11D880F991F661F771F0694A1F7F3
S11319800590079420F4490F561FC71FD81F990FBD
S1131990661F771F881F0694A9F784911095177006
S11319A041F0D695C79557954795F794E7941A95BE
S11319B0C1F7E4E5F0E068941590159135916591CF
S11319C0959105907FE27395E118F10A430B560B4C
S11319D0C90BD009C0F7E10CF11E431F561FC91FE4
S11319E0D01D7EF4703311F48A95E6CFE89401504B
S11319F030F0080F0AF40027021708F4202F23956B
S1131A00022F7A3328F079E37D932A95E9F710C001
S1131A107D932A9589F6069497956795379517953A
S1131A201794E118F10A430B560BC90BD00998F02F
S1131A3023957E9173957A3308F070E37C93201399
S1131A40B8F77E9170617D9330F0839571E37D9357
S1131A5070E32A95E1F71124EF90FF900F911F9105
S1131A60CF91DF91992787FD90950895FC0105900A
S1131A70615070400110D8F7809590958E0F9F1F8C
S1131A800895FC016150704001900110D8F78095D1
S1131A9090958E0F9F1F08950F931F93CF93DF93FD
S1131AA0FB01238121FD03C08FEF9FEF2CC022FF98
S1131AB016C046815781248135814217530744F467
S1131AC0A081B1819D012F5F3F4F318320838C938F
S1131AD0268137812F5F3F4F3783268314C08B01C4
S1131AE0EC01FB010084F185E02D0995892BE1F6D9
S1131AF0D80116968D919C911797019617969C93F1
S1131B008E931697CE01DF91CF911F910F91089577
S1131B10FA01AA27283051F1203181F1E8946F931A
S1131B206E7F6E5F7F4F8F4F9F4FAF4FB1E03ED0C0
S1131B30B4E03CD0670F781F891F9A1FA11D680F5E
S1131B40791F8A1F911DA11D6A0F711D811D911D91
S1131B50A11D20D009F468943F912AE0269F112406
S1131B603019305D3193DEF6CF010895462F47706A
S1131B70405D4193B3E00FD0C9F7F6CF462F4F70C5
S1131B80405D4A3318F0495D31FD4052419302D023
S1131B90A9F7EACFB4E0A6959795879577956795C9
S1131BA0BA95C9F700976105710508959B01AC01C9
S1131BB00A2E06945795479537952795BA95C9F7F0
S1131BC0620F731F841F951FA01D08952F923F92CB
S1131BD04F925F926F927F928F929F92AF92BF9239
S1131BE0CF92DF92EF92FF920F931F93CF93DF93E5
S1131BF0CDB7DEB7CA1BDB0B0FB6F894DEBF0FBE42
S1131C00CDBF09942A88398848885F846E847D848E
S1131C108C849B84AA84B984C884DF80EE80FD8090
S1131C200C811B81AA81B981CE0FD11D0FB6F89406
S1111C30DEBF0FBECDBFED010895F894FFCFC7
S1131C3E0F006C20257500732025750063616C639D
S1131C4E756C6174656420747261636B206C656E6F
S1131C5E677468203D2025750D0A007365676D65F0
S1131C6E6E742025642C2073706565642025750DB3
S1131C7E0A004D6F746F7220737461727465642000
S1131C8E61742073706565642025750D0A000D203E
S1131C9E2020202020202020202020202020202032
S1131CAE2020202020202020202020202020202022
S1131CBE2020202020202020202020202020202012
S1131CCE2020202020202020202020202020202002
S1131CDE20202020202020202020202020202020F2
S1131CEE202020202020202020206C6170203D20E8
S1131CFE2575206C656E677468203D20253364005D
S1131D0E0D53706565643D2575204F444F3D253355
S1131D1E6420546F70583D257520486173743D25B9
S1131D2E73206163633D25732020202020000D580D
S1131D3E3D25752053706565643D2575204F444FD0
S1131D4E3D25336420546F70583D257520486173CA
S1131D5E743D2573206163633D257320202020206C
S1131D6E000D202020202020202020202020202094
S1131D7E2020202020202020202020202020202051
S1131D8E2020202020202020202020202020202041
S1131D9E2020202020202020202020202020202031
S1131DAE2020202020202020202020202020202021
S1131DBE2020202020202020202020202020202011
S1131DCE2020202020202020202020202020202001
S1131DDE20202020202020202020202020202020F1
S1131DEE205365676D656E746572206279676765E9
S1071DFE7421000048
S9030000FC
